{"abi":[{"type":"constructor","inputs":[{"name":"_pyusd","type":"address","internalType":"address"},{"name":"_defaultAiHandler","type":"address","internalType":"address"}],"stateMutability":"nonpayable"},{"type":"function","name":"CAMPAIGN_MASTER_NFT","inputs":[],"outputs":[{"name":"","type":"address","internalType":"contract CampaignMasterNFT"}],"stateMutability":"view"},{"type":"function","name":"DEFAULT_AI_HANDLER","inputs":[],"outputs":[{"name":"","type":"address","internalType":"address"}],"stateMutability":"view"},{"type":"function","name":"PYUSD","inputs":[],"outputs":[{"name":"","type":"address","internalType":"address"}],"stateMutability":"view"},{"type":"function","name":"batchSetKYCStatus","inputs":[{"name":"_users","type":"address[]","internalType":"address[]"},{"name":"_statuses","type":"bool[]","internalType":"bool[]"}],"outputs":[],"stateMutability":"nonpayable"},{"type":"function","name":"campaigns","inputs":[{"name":"","type":"uint256","internalType":"uint256"}],"outputs":[{"name":"campaignAddress","type":"address","internalType":"address"},{"name":"creator","type":"address","internalType":"address"},{"name":"title","type":"string","internalType":"string"},{"name":"createdAt","type":"uint256","internalType":"uint256"},{"name":"isActive","type":"bool","internalType":"bool"}],"stateMutability":"view"},{"type":"function","name":"canCreateCampaign","inputs":[{"name":"_user","type":"address","internalType":"address"}],"outputs":[{"name":"","type":"bool","internalType":"bool"}],"stateMutability":"view"},{"type":"function","name":"createCampaign","inputs":[{"name":"_title","type":"string","internalType":"string"},{"name":"_description","type":"string","internalType":"string"},{"name":"_goal","type":"uint256","internalType":"uint256"},{"name":"_duration","type":"uint256","internalType":"uint256"}],"outputs":[{"name":"","type":"address","internalType":"address"}],"stateMutability":"nonpayable"},{"type":"function","name":"createCampaign","inputs":[{"name":"_title","type":"string","internalType":"string"},{"name":"_description","type":"string","internalType":"string"},{"name":"_goal","type":"uint256","internalType":"uint256"},{"name":"_duration","type":"uint256","internalType":"uint256"},{"name":"_milestoneAmounts","type":"uint256[]","internalType":"uint256[]"}],"outputs":[{"name":"","type":"address","internalType":"address"}],"stateMutability":"nonpayable"},{"type":"function","name":"creatorCampaigns","inputs":[{"name":"","type":"address","internalType":"address"},{"name":"","type":"uint256","internalType":"uint256"}],"outputs":[{"name":"","type":"uint256","internalType":"uint256"}],"stateMutability":"view"},{"type":"function","name":"getActiveCampaignsCount","inputs":[],"outputs":[{"name":"","type":"uint256","internalType":"uint256"}],"stateMutability":"view"},{"type":"function","name":"getAllCampaigns","inputs":[],"outputs":[{"name":"","type":"tuple[]","internalType":"struct CampaignFactory.CampaignData[]","components":[{"name":"campaignAddress","type":"address","internalType":"address"},{"name":"creator","type":"address","internalType":"address"},{"name":"title","type":"string","internalType":"string"},{"name":"createdAt","type":"uint256","internalType":"uint256"},{"name":"isActive","type":"bool","internalType":"bool"}]}],"stateMutability":"view"},{"type":"function","name":"getCampaign","inputs":[{"name":"_index","type":"uint256","internalType":"uint256"}],"outputs":[{"name":"","type":"tuple","internalType":"struct CampaignFactory.CampaignData","components":[{"name":"campaignAddress","type":"address","internalType":"address"},{"name":"creator","type":"address","internalType":"address"},{"name":"title","type":"string","internalType":"string"},{"name":"createdAt","type":"uint256","internalType":"uint256"},{"name":"isActive","type":"bool","internalType":"bool"}]}],"stateMutability":"view"},{"type":"function","name":"getCampaignCount","inputs":[],"outputs":[{"name":"","type":"uint256","internalType":"uint256"}],"stateMutability":"view"},{"type":"function","name":"getCampaignsByCreator","inputs":[{"name":"_creator","type":"address","internalType":"address"}],"outputs":[{"name":"","type":"uint256[]","internalType":"uint256[]"}],"stateMutability":"view"},{"type":"function","name":"getCampaignsPaginated","inputs":[{"name":"_offset","type":"uint256","internalType":"uint256"},{"name":"_limit","type":"uint256","internalType":"uint256"}],"outputs":[{"name":"","type":"tuple[]","internalType":"struct CampaignFactory.CampaignData[]","components":[{"name":"campaignAddress","type":"address","internalType":"address"},{"name":"creator","type":"address","internalType":"address"},{"name":"title","type":"string","internalType":"string"},{"name":"createdAt","type":"uint256","internalType":"uint256"},{"name":"isActive","type":"bool","internalType":"bool"}]}],"stateMutability":"view"},{"type":"function","name":"getKYCDetails","inputs":[{"name":"_user","type":"address","internalType":"address"}],"outputs":[{"name":"isVerified","type":"bool","internalType":"bool"},{"name":"verifiedAt","type":"uint256","internalType":"uint256"},{"name":"canCreateCampaigns","type":"bool","internalType":"bool"}],"stateMutability":"view"},{"type":"function","name":"isKYCVerified","inputs":[{"name":"","type":"address","internalType":"address"}],"outputs":[{"name":"","type":"bool","internalType":"bool"}],"stateMutability":"view"},{"type":"function","name":"kycOracle","inputs":[],"outputs":[{"name":"","type":"address","internalType":"address"}],"stateMutability":"view"},{"type":"function","name":"kycVerifiedAt","inputs":[{"name":"","type":"address","internalType":"address"}],"outputs":[{"name":"","type":"uint256","internalType":"uint256"}],"stateMutability":"view"},{"type":"function","name":"setKYCOracle","inputs":[{"name":"_newOracle","type":"address","internalType":"address"}],"outputs":[],"stateMutability":"nonpayable"},{"type":"function","name":"setKYCStatus","inputs":[{"name":"_user","type":"address","internalType":"address"},{"name":"_isVerified","type":"bool","internalType":"bool"}],"outputs":[],"stateMutability":"nonpayable"},{"type":"event","name":"CampaignCreated","inputs":[{"name":"campaignAddress","type":"address","indexed":true,"internalType":"address"},{"name":"creator","type":"address","indexed":true,"internalType":"address"},{"name":"title","type":"string","indexed":false,"internalType":"string"},{"name":"goal","type":"uint256","indexed":false,"internalType":"uint256"},{"name":"duration","type":"uint256","indexed":false,"internalType":"uint256"}],"anonymous":false},{"type":"event","name":"KYCOracleUpdated","inputs":[{"name":"previousOracle","type":"address","indexed":true,"internalType":"address"},{"name":"newOracle","type":"address","indexed":true,"internalType":"address"}],"anonymous":false},{"type":"event","name":"KYCStatusUpdated","inputs":[{"name":"user","type":"address","indexed":true,"internalType":"address"},{"name":"isVerified","type":"bool","indexed":false,"internalType":"bool"},{"name":"verifiedAt","type":"uint256","indexed":false,"internalType":"uint256"}],"anonymous":false}],"bytecode":{"object":"0x60e06040523480156200001157600080fd5b5060405162006d1e38038062006d1e8339810160408190526200003491620000d6565b6001600160a01b03808316608052811660a05260405130906200005790620000ab565b6001600160a01b039091168152602001604051809103906000f08015801562000084573d6000803e3d6000fd5b506001600160a01b031660c0525050600280546001600160a01b031916331790556200010e565b612604806200471a83390190565b80516001600160a01b0381168114620000d157600080fd5b919050565b60008060408385031215620000ea57600080fd5b620000f583620000b9565b91506200010560208401620000b9565b90509250929050565b60805160a05160c0516145c06200015a600039600081816104000152818161133e015261140c0152600081816101f5015261111e0152600081816102a101526110fb01526145c06000f3fe60806040523480156200001157600080fd5b5060043610620001515760003560e01c8063a3f569ae11620000c7578063d5b8d84a1162000086578063d5b8d84a1462000383578063ddc8af6114620003a9578063e022b30014620003c0578063ea9fb1ba14620003d7578063eb34b24314620003fa578063f597c73b146200042257600080fd5b8063a3f569ae14620002da578063b97d57ea14620002f1578063bba91ff014620002fb578063c3d04bc61462000312578063c9c251d2146200036f57600080fd5b80636bca5f1811620001145780636bca5f1814620002565780636caa9218146200026f57806386cdf60414620002825780639e19789d146200029b578063a318f26914620002c357600080fd5b8063141961bc14620001565780633adc43a7146200018957806354b7636e14620001c957806354d0d48a14620001ef5780635598f8cc1462000230575b600080fd5b6200016d6200016736600462001603565b62000439565b6040516200018095949392919062001671565b60405180910390f35b620001b86200019a366004620016d5565b6001600160a01b031660009081526020819052604090205460ff1690565b604051901515815260200162000180565b620001b8620001da366004620016d5565b60006020819052908152604090205460ff1681565b620002177f000000000000000000000000000000000000000000000000000000000000000081565b6040516001600160a01b03909116815260200162000180565b620002476200024136600462001603565b6200051e565b60405162000180919062001753565b6200026d62000267366004620016d5565b62000687565b005b6003545b60405190815260200162000180565b6200028c62000791565b60405162000180919062001768565b620002177f000000000000000000000000000000000000000000000000000000000000000081565b62000217620002d436600462001891565b620008ce565b6200026d620002eb3660046200191b565b620008f7565b62000273620009c1565b6200026d6200030c366004620019a6565b62000a23565b6200034f62000323366004620016d5565b6001600160a01b03166000908152602081815260408083205460019092529091205460ff909116918290565b604080519315158452602084019290925215159082015260600162000180565b60025462000217906001600160a01b031681565b6200039a62000394366004620016d5565b62000bb2565b60405162000180919062001a57565b62000273620003ba36600462001a6c565b62000c20565b62000217620003d136600462001a99565b62000c52565b62000273620003e8366004620016d5565b60016020526000908152604090205481565b620002177f000000000000000000000000000000000000000000000000000000000000000081565b6200028c6200043336600462001bab565b62000c63565b600381815481106200044a57600080fd5b60009182526020909120600590910201805460018201546002830180546001600160a01b039384169550929091169291620004859062001bce565b80601f0160208091040260200160405190810160405280929190818152602001828054620004b39062001bce565b8015620005045780601f10620004d85761010080835404028352916020019162000504565b820191906000526020600020905b815481529060010190602001808311620004e657829003601f168201915b50505050600383015460049093015491929160ff16905085565b62000528620015b2565b6003548210620005785760405162461bcd60e51b8152602060048201526016602482015275092dcecc2d8d2c840c6c2dae0c2d2cedc40d2dcc8caf60531b60448201526064015b60405180910390fd5b600382815481106200058e576200058e62001c04565b60009182526020918290206040805160a081018252600590930290910180546001600160a01b0390811684526001820154169383019390935260028301805492939291840191620005df9062001bce565b80601f01602080910402602001604051908101604052809291908181526020018280546200060d9062001bce565b80156200065e5780601f1062000632576101008083540402835291602001916200065e565b820191906000526020600020905b8154815290600101906020018083116200064057829003601f168201915b50505091835250506003820154602082015260049091015460ff16151560409091015292915050565b6002546001600160a01b03163314620006ee5760405162461bcd60e51b815260206004820152602260248201527f4f6e6c792063757272656e74204b5943206f7261636c652063616e2075706461604482015261746560f01b60648201526084016200056f565b6001600160a01b0381166200073f5760405162461bcd60e51b8152602060048201526016602482015275496e76616c6964206f7261636c65206164647265737360501b60448201526064016200056f565b600280546001600160a01b038381166001600160a01b0319831681179093556040519116919082907f89721ae94cdce25e6d3668c9460c86b2b6bce6d00b5980f8d573cd7186521fbb90600090a35050565b60606003805480602002602001604051908101604052809291908181526020016000905b82821015620008c55760008481526020908190206040805160a0810182526005860290920180546001600160a01b03908116845260018201541693830193909352600283018054929392918401916200080e9062001bce565b80601f01602080910402602001604051908101604052809291908181526020018280546200083c9062001bce565b80156200088d5780601f1062000861576101008083540402835291602001916200088d565b820191906000526020600020905b8154815290600101906020018083116200086f57829003601f168201915b5050509183525050600382015460208083019190915260049092015460ff1615156040909101529082526001929092019101620007b5565b50505050905090565b60408051600080825260208201909252620008ed868686868562000e90565b9695505050505050565b6002546001600160a01b03163314620009245760405162461bcd60e51b81526004016200056f9062001c1a565b6001600160a01b0382166000908152602081905260409020805460ff1916821580159190911790915562000978576001600160a01b038216600090815260016020526040902042905562000978826200131f565b6040805182151581524260208201526001600160a01b038416917f7abd35ff33891ab3686be6791d9262c0aace8d89f28fcf30262d6e1e06f60cb4910160405180910390a25050565b600080805b60035481101562000a1d5760038181548110620009e757620009e762001c04565b600091825260209091206004600590920201015460ff161562000a14578162000a108162001c71565b9250505b600101620009c6565b50919050565b6002546001600160a01b0316331462000a505760405162461bcd60e51b81526004016200056f9062001c1a565b82811462000a9a5760405162461bcd60e51b8152602060048201526016602482015275082e4e4c2f2e640d8cadccee8d040dad2e6dac2e8c6d60531b60448201526064016200056f565b60005b8381101562000bab57600085858381811062000abd5762000abd62001c04565b905060200201602081019062000ad49190620016d5565b9050600084848481811062000aed5762000aed62001c04565b905060200201602081019062000b04919062001c8d565b6001600160a01b0383166000908152602081905260409020805460ff1916821580159190911790915590915062000b5b576001600160a01b038216600090815260016020526040902042905562000b5b826200131f565b6040805182151581524260208201526001600160a01b038416917f7abd35ff33891ab3686be6791d9262c0aace8d89f28fcf30262d6e1e06f60cb4910160405180910390a2505060010162000a9d565b5050505050565b6001600160a01b03811660009081526004602090815260409182902080548351818402810184019094528084526060939283018282801562000c1457602002820191906000526020600020905b81548152602001906001019080831162000bff575b50505050509050919050565b6004602052816000526040600020818154811062000c3d57600080fd5b90600052602060002001600091509150505481565b6000620008ed868686868662000e90565b60035460609083111562000cb15760405162461bcd60e51b81526020600482015260146024820152734f6666736574206f7574206f6620626f756e647360601b60448201526064016200056f565b600354829062000cc2828662001cad565b111562000cdc5760035462000cd990859062001cc3565b90505b60008167ffffffffffffffff81111562000cfa5762000cfa620017d0565b60405190808252806020026020018201604052801562000d3757816020015b62000d23620015b2565b81526020019060019003908162000d195790505b50905060005b8281101562000e8557600362000d54828862001cad565b8154811062000d675762000d6762001c04565b60009182526020918290206040805160a081018252600590930290910180546001600160a01b039081168452600182015416938301939093526002830180549293929184019162000db89062001bce565b80601f016020809104026020016040519081016040528092919081815260200182805462000de69062001bce565b801562000e375780601f1062000e0b5761010080835404028352916020019162000e37565b820191906000526020600020905b81548152906001019060200180831162000e1957829003601f168201915b50505091835250506003820154602082015260049091015460ff161515604090910152825183908390811062000e715762000e7162001c04565b602090810291909101015260010162000d3d565b509150505b92915050565b3360009081526020819052604081205460ff1662000f075760405162461bcd60e51b815260206004820152602d60248201527f4b594320766572696669636174696f6e20726571756972656420746f2063726560448201526c6174652063616d706169676e7360981b60648201526084016200056f565b6000841162000f4c5760405162461bcd60e51b815260206004820152601060248201526f0476f616c206d757374206265203e20360841b60448201526064016200056f565b6201518083101562000fa15760405162461bcd60e51b815260206004820152601f60248201527f4475726174696f6e206d757374206265206174206c656173742031206461790060448201526064016200056f565b6301e1338083111562000ff75760405162461bcd60e51b815260206004820152601d60248201527f4475726174696f6e2063616e6e6f74206578636565642031207965617200000060448201526064016200056f565b815115620010f3576000805b8351811015620010a557600084828151811062001024576200102462001c04565b602002602001015111620010705760405162461bcd60e51b815260206004820152601260248201527104d696c6573746f6e65206d757374203e20360741b60448201526064016200056f565b83818151811062001085576200108562001c04565b6020026020010151826200109a919062001cad565b915060010162001003565b5084811115620010f15760405162461bcd60e51b8152602060048201526016602482015275135a5b195cdd1bdb995cc8195e18d959590819dbd85b60521b60448201526064016200056f565b505b6000868686867f000000000000000000000000000000000000000000000000000000000000000033887f00000000000000000000000000000000000000000000000000000000000000006040516200114b90620015f5565b6200115e98979695949392919062001cd9565b604051809103906000f0801580156200117b573d6000803e3d6000fd5b506040805160a0810182526001600160a01b03808416825233602083019081529282018b8152426060840152600160808401819052600380549182018155600052835160059091027fc2575a0e9e593c00f959f8c92f12db2869c3395a3b0502d05e2516446f71f85b810180549285166001600160a01b031993841617815595517fc2575a0e9e593c00f959f8c92f12db2869c3395a3b0502d05e2516446f71f85c82018054919095169216919091179092555193945084939192839290917fc2575a0e9e593c00f959f8c92f12db2869c3395a3b0502d05e2516446f71f85d019062001269908262001daf565b5060608201516003828101919091556080909201516004918201805460ff1916911515919091179055336000908152602091909152604090209054620012b29060019062001cc3565b8154600181018355600092835260209092209091015560405133906001600160a01b038416907f810c1f0481c76c27bfb99d47b443b405e6f4d247fb07302759cb36d58742d07f906200130b908d908c908c9062001e7c565b60405180910390a350979650505050505050565b60405163785f8ee360e01b81526001600160a01b0382811660048301527f0000000000000000000000000000000000000000000000000000000000000000169063785f8ee390602401602060405180830381865afa15801562001386573d6000803e3d6000fd5b505050506040513d601f19601f82011682018060405250810190620013ac919062001ea3565b6200148e576000620013c7826001600160a01b031662001491565b620013d24262001491565b604051602001620013e592919062001ec3565b60408051601f1981840301815290829052637791d3f360e01b825291506001600160a01b037f00000000000000000000000000000000000000000000000000000000000000001690637791d3f39062001445908590859060040162001f3c565b6020604051808303816000875af115801562001465573d6000803e3d6000fd5b505050506040513d601f19601f820116820180604052508101906200148b919062001fab565b50505b50565b606081600003620014b95750506040805180820190915260018152600360fc1b602082015290565b8160005b8115620014e95780620014d08162001c71565b9150620014e19050600a8362001fdb565b9150620014bd565b60008167ffffffffffffffff811115620015075762001507620017d0565b6040519080825280601f01601f19166020018201604052801562001532576020820181803683370190505b5090505b8415620015aa576200154a60018362001cc3565b915062001559600a8662001ff2565b6200156690603062001cad565b60f81b8183815181106200157e576200157e62001c04565b60200101906001600160f81b031916908160001a905350620015a2600a8662001fdb565b945062001536565b949350505050565b6040518060a0016040528060006001600160a01b0316815260200160006001600160a01b0316815260200160608152602001600081526020016000151581525090565b612581806200200a83390190565b6000602082840312156200161657600080fd5b5035919050565b60005b838110156200163a57818101518382015260200162001620565b50506000910152565b600081518084526200165d8160208601602086016200161d565b601f01601f19169290920160200192915050565b6001600160a01b0386811682528516602082015260a0604082018190526000906200169f9083018662001643565b6060830194909452509015156080909101529392505050565b80356001600160a01b0381168114620016d057600080fd5b919050565b600060208284031215620016e857600080fd5b620016f382620016b8565b9392505050565b600060018060a01b0380835116845280602084015116602085015250604082015160a060408501526200173160a085018262001643565b9050606083015160608501526080830151151560808501528091505092915050565b602081526000620016f36020830184620016fa565b600060208083016020845280855180835260408601915060408160051b87010192506020870160005b82811015620017c357603f19888603018452620017b0858351620016fa565b9450928501929085019060010162001791565b5092979650505050505050565b634e487b7160e01b600052604160045260246000fd5b604051601f8201601f1916810167ffffffffffffffff81118282101715620018125762001812620017d0565b604052919050565b600082601f8301126200182c57600080fd5b813567ffffffffffffffff811115620018495762001849620017d0565b6200185e601f8201601f1916602001620017e6565b8181528460208386010111156200187457600080fd5b816020850160208301376000918101602001919091529392505050565b60008060008060808587031215620018a857600080fd5b843567ffffffffffffffff80821115620018c157600080fd5b620018cf888389016200181a565b95506020870135915080821115620018e657600080fd5b50620018f5878288016200181a565b949794965050505060408301359260600135919050565b80151581146200148e57600080fd5b600080604083850312156200192f57600080fd5b6200193a83620016b8565b915060208301356200194c816200190c565b809150509250929050565b60008083601f8401126200196a57600080fd5b50813567ffffffffffffffff8111156200198357600080fd5b6020830191508360208260051b85010111156200199f57600080fd5b9250929050565b60008060008060408587031215620019bd57600080fd5b843567ffffffffffffffff80821115620019d657600080fd5b620019e48883890162001957565b90965094506020870135915080821115620019fe57600080fd5b5062001a0d8782880162001957565b95989497509550505050565b60008151808452602080850194506020840160005b8381101562001a4c5781518752958201959082019060010162001a2e565b509495945050505050565b602081526000620016f3602083018462001a19565b6000806040838503121562001a8057600080fd5b62001a8b83620016b8565b946020939093013593505050565b600080600080600060a0868803121562001ab257600080fd5b853567ffffffffffffffff8082111562001acb57600080fd5b62001ad989838a016200181a565b965060209150818801358181111562001af157600080fd5b62001aff8a828b016200181a565b965050604088013594506060880135935060808801358181111562001b2357600080fd5b8801601f81018a1362001b3557600080fd5b80358281111562001b4a5762001b4a620017d0565b8060051b925062001b5d848401620017e6565b818152928201840192848101908c85111562001b7857600080fd5b928501925b8484101562001b985783358252928501929085019062001b7d565b8096505050505050509295509295909350565b6000806040838503121562001bbf57600080fd5b50508035926020909101359150565b600181811c9082168062001be357607f821691505b60208210810362000a1d57634e487b7160e01b600052602260045260246000fd5b634e487b7160e01b600052603260045260246000fd5b60208082526021908201527f4f6e6c79204b5943206f7261636c652063616e207570646174652073746174756040820152607360f81b606082015260800190565b634e487b7160e01b600052601160045260246000fd5b60006001820162001c865762001c8662001c5b565b5060010190565b60006020828403121562001ca057600080fd5b8135620016f3816200190c565b8082018082111562000e8a5762000e8a62001c5b565b8181038181111562000e8a5762000e8a62001c5b565b600061010080835262001cef8184018c62001643565b9050828103602084015262001d05818b62001643565b604084018a9052606084018990526001600160a01b03888116608086015287811660a086015284820360c086015290915062001d42828762001a19565b925080851660e085015250509998505050505050505050565b601f8211156200148b576000816000526020600020601f850160051c8101602086101562001d865750805b601f850160051c820191505b8181101562001da75782815560010162001d92565b505050505050565b815167ffffffffffffffff81111562001dcc5762001dcc620017d0565b62001de48162001ddd845462001bce565b8462001d5b565b602080601f83116001811462001e1c576000841562001e035750858301515b600019600386901b1c1916600185901b17855562001da7565b600085815260208120601f198616915b8281101562001e4d5788860151825594840194600190910190840162001e2c565b508582101562001e6c5787850151600019600388901b60f8161c191681555b5050505050600190811b01905550565b60608152600062001e91606083018662001643565b60208301949094525060400152919050565b60006020828403121562001eb657600080fd5b8151620016f3816200190c565b66697066733a2f2f60c81b81527f63616d706169676e2d6d61737465722d766572696669636174696f6e2f00000060078201526000835162001f0d8160248501602088016200161d565b602f60f81b602491840191820152835162001f308160258401602088016200161d565b01602501949350505050565b60018060a01b038316815260806020820152600d60808201526c4175746f43726f7764204b594360981b60a082015260c06040820152600760c0820152664c6576656c203160c81b60e0820152600061010080606084015262001fa28184018562001643565b95945050505050565b60006020828403121562001fbe57600080fd5b5051919050565b634e487b7160e01b600052601260045260246000fd5b60008262001fed5762001fed62001fc5565b500490565b60008262002004576200200462001fc5565b50069056fe60806040523480156200001157600080fd5b5060405162002581380380620025818339810160408190526200003491620006a2565b826001600160a01b0381166200006557604051631e4fbdf760e01b8152600060048201526024015b60405180910390fd5b6200007081620004d7565b506001805585620000b75760405162461bcd60e51b815260206004820152601060248201526f0476f616c206d757374206265203e20360841b60448201526064016200005c565b60008511620001095760405162461bcd60e51b815260206004820152601460248201527f4475726174696f6e206d757374206265203e203000000000000000000000000060448201526064016200005c565b6001600160a01b038416620001505760405162461bcd60e51b815260206004820152600c60248201526b5a65726f206164647265737360a01b60448201526064016200005c565b6001600160a01b038316620001975760405162461bcd60e51b815260206004820152600c60248201526b2d32b9379031b932b0ba37b960a11b60448201526064016200005c565b604051806101200160405280898152602001888152602001878152602001600081526020014281526020018642620001d091906200077f565b81526001600160a01b03851660208201526001604082015260006060909101528051600290819062000203908262000838565b50602082015160018201906200021a908262000838565b5060408201516002820155606082015160038201556080820151600482015560a0820151600582015560c082015160068201805460e08501511515600160a01b026001600160a81b03199091166001600160a01b039384161717905561010090920151600790910155600e80548683166001600160a01b031991821617909155600f8054928416929091169190911790556000805b835181101562000471576000848281518110620002d057620002d062000904565b6020026020010151116200031c5760405162461bcd60e51b815260206004820152601260248201527104d696c6573746f6e65206d757374203e20360741b60448201526064016200005c565b6040518060e0016040528060405180602001604052806000815250815260200185838151811062000351576200035162000904565b6020026020010151815260200160008152602001600060038111156200037b576200037b6200091a565b815260006020808301829052604080518083018252838152818501526060909301829052848252600a90522081518190620003b7908262000838565b50602082015181600101556040820151816002015560608201518160030160006101000a81548160ff02191690836003811115620003f957620003f96200091a565b02179055506080820151600482015560a082015160058201906200041e908262000838565b5060c091909101516006909101805460ff1916911515919091179055835184908290811062000451576200045162000904565b6020026020010151826200046691906200077f565b9150600101620002af565b5086811115620004c45760405162461bcd60e51b815260206004820152601660248201527f4d696c6573746f6e65732065786365656420676f616c0000000000000000000060448201526064016200005c565b5050516009555062000930945050505050565b600080546001600160a01b038381166001600160a01b0319831681178455604051919092169283917f8be0079c531659141344cd1fd0a4f28419497f9722a3daafe3b4186f6b6457e09190a35050565b634e487b7160e01b600052604160045260246000fd5b604051601f8201601f191681016001600160401b038111828210171562000568576200056862000527565b604052919050565b600082601f8301126200058257600080fd5b81516001600160401b038111156200059e576200059e62000527565b6020620005b4601f8301601f191682016200053d565b8281528582848701011115620005c957600080fd5b60005b83811015620005e9578581018301518282018401528201620005cc565b506000928101909101919091529392505050565b80516001600160a01b03811681146200061557600080fd5b919050565b600082601f8301126200062c57600080fd5b815160206001600160401b038211156200064a576200064a62000527565b8160051b6200065b8282016200053d565b92835284810182019282810190878511156200067657600080fd5b83870192505b8483101562000697578251825291830191908301906200067c565b979650505050505050565b600080600080600080600080610100898b031215620006c057600080fd5b88516001600160401b0380821115620006d857600080fd5b620006e68c838d0162000570565b995060208b0151915080821115620006fd57600080fd5b6200070b8c838d0162000570565b985060408b0151975060608b015196506200072960808c01620005fd565b95506200073960a08c01620005fd565b945060c08b01519150808211156200075057600080fd5b506200075f8b828c016200061a565b9250506200077060e08a01620005fd565b90509295985092959890939650565b80820180821115620007a157634e487b7160e01b600052601160045260246000fd5b92915050565b600181811c90821680620007bc57607f821691505b602082108103620007dd57634e487b7160e01b600052602260045260246000fd5b50919050565b601f82111562000833576000816000526020600020601f850160051c810160208610156200080e5750805b601f850160051c820191505b818110156200082f578281556001016200081a565b5050505b505050565b81516001600160401b0381111562000854576200085462000527565b6200086c81620008658454620007a7565b84620007e3565b602080601f831160018114620008a457600084156200088b5750858301515b600019600386901b1c1916600185901b1785556200082f565b600085815260208120601f198616915b82811015620008d557888601518255948401946001909101908401620008b4565b5085821015620008f45787850151600019600388901b60f8161c191681555b5050505050600190811b01905550565b634e487b7160e01b600052603260045260246000fd5b634e487b7160e01b600052602160045260246000fd5b611c4180620009406000396000f3fe608060405234801561001057600080fd5b506004361061012c5760003560e01c80638a519f66116100ad578063c2ea6a7f11610071578063c2ea6a7f146102af578063c3c31056146102b7578063e89e4ed6146102ca578063e9d80020146102f0578063f2fde38b1461030357600080fd5b80638a519f66146102445780638da5cb5b14610266578063a00c96d714610277578063b5545a3c14610294578063c1cbbca71461029c57600080fd5b806342e94c90116100f457806342e94c90146101ae578063476a119b146101ce57806364693764146101e1578063715018a614610209578063746fcab71461021157600080fd5b80630878ffe3146101315780631d565e781461014657806322e669d31461015d5780632b37ce8d146101885780632fb37fef1461019b575b600080fd5b61014461013f366004611662565b610316565b005b600c545b6040519081526020015b60405180910390f35b600e54610170906001600160a01b031681565b6040516001600160a01b039091168152602001610154565b600f54610170906001600160a01b031681565b6101446101a9366004611692565b610370565b61014a6101bc366004611662565b600b6020526000908152604090205481565b6101446101dc36600461176b565b610545565b6101e961068b565b604080519485526020850193909352918301526060820152608001610154565b6101446106af565b61023461021f366004611662565b600d6020526000908152604090205460ff1681565b6040519015158152602001610154565b6102576102523660046117b2565b6106c3565b604051610154939291906117d4565b6000546001600160a01b0316610170565b61027f61089f565b604051610154999897969594939291906118ad565b610144610aaa565b6101446102aa366004611919565b610bf5565b61027f610df8565b6101446102c5366004611932565b610f55565b6102dd6102d8366004611919565b6110e7565b6040516101549796959493929190611996565b6101706102fe366004611919565b61123d565b610144610311366004611662565b611267565b61031e6112a2565b600f80546001600160a01b038381166001600160a01b0319831681179093556040519116919082907f44a67b7e4c75d366b5b73a058e417c0910f6b7ef4860f7b8cf510a5df1ab7a2290600090a35050565b6000546001600160a01b031633148061038d575061038d336112cf565b6103d35760405162461bcd60e51b815260206004820152601260248201527127b7363c9020a49037b91031b932b0ba37b960711b60448201526064015b60405180910390fd5b60095482106104185760405162461bcd60e51b8152602060048201526011602482015270496e76616c6964206d696c6573746f6e6560781b60448201526064016103ca565b6000828152600a60205260409020600160038083015460ff169081111561044157610441611980565b1461048e5760405162461bcd60e51b815260206004820152601760248201527f4d696c6573746f6e65206e6f74207375626d697474656400000000000000000060448201526064016103ca565b60405160ff8316815283907fe90edf17af9e0faec80c6ac87ec2e813590ce6acc79b6d254bc0d5d2dbb81a179060200160405180910390a28160ff166001036104df576104da836112fd565b505050565b60ff821615806104f257508160ff166002145b1561050b576003908101805460ff191690911790555050565b60405162461bcd60e51b815260206004820152600f60248201526e125b9d985b1a59081d995c991a58dd608a1b60448201526064016103ca565b61054d6112a2565b60095482106105925760405162461bcd60e51b8152602060048201526011602482015270496e76616c6964206d696c6573746f6e6560781b60448201526064016103ca565b6000828152600a602052604081209060038083015460ff16908111156105ba576105ba611980565b14806105dc575060038181015460ff16818111156105da576105da611980565b145b6106285760405162461bcd60e51b815260206004820152601c60248201527f496e76616c696420737461746520666f72207375626d697373696f6e0000000060448201526064016103ca565b600581016106368382611a92565b5060038101805460ff1916600117905542600482015560405183907f6c4ed5f8d6ddf265b243b3e007707e3374049d833dfc7791c66c06579aa10ff99061067e908590611b52565b60405180910390a2505050565b600c5460055460008083156106a7576106a48484611b7b565b91505b504290919293565b6106b76112a2565b6106c160006114d9565b565b6060806000600c8054905085106107125760405162461bcd60e51b8152602060048201526013602482015272092dcecc2d8d2c840e6e8c2e4e840d2dcc8caf606b1b60448201526064016103ca565b600061071e8587611b9d565b600c549091508111156107305750600c545b600061073c8783611bb0565b90508067ffffffffffffffff811115610757576107576116c8565b604051908082528060200260200182016040528015610780578160200160208202803683370190505b5094508067ffffffffffffffff81111561079c5761079c6116c8565b6040519080825280602002602001820160405280156107c5578160200160208202803683370190505b50935060005b81811015610890576000600c6107e1838b611b9d565b815481106107f1576107f1611bc3565b9060005260206000200160009054906101000a90046001600160a01b031690508087838151811061082457610824611bc3565b60200260200101906001600160a01b031690816001600160a01b031681525050600b6000826001600160a01b03166001600160a01b031681526020019081526020016000205486838151811061087c5761087c611bc3565b6020908102919091010152506001016107cb565b5050600c541190509250925092565b6060806000806000806000806000806002604051806101200160405290816000820180546108cc90611a08565b80601f01602080910402602001604051908101604052809291908181526020018280546108f890611a08565b80156109455780601f1061091a57610100808354040283529160200191610945565b820191906000526020600020905b81548152906001019060200180831161092857829003601f168201915b5050505050815260200160018201805461095e90611a08565b80601f016020809104026020016040519081016040528092919081815260200182805461098a90611a08565b80156109d75780601f106109ac576101008083540402835291602001916109d7565b820191906000526020600020905b8154815290600101906020018083116109ba57829003601f168201915b50505050508152602001600282015481526020016003820154815260200160048201548152602001600582015481526020016006820160009054906101000a90046001600160a01b03166001600160a01b03166001600160a01b031681526020016006820160149054906101000a900460ff161515151581526020016007820154815250509050806000015181602001518260400151836060015184608001518560a001518660c001518760e0015188610100015199509950995099509950995099509950995050909192939495969798565b610ab2611529565b6007544211610af95760405162461bcd60e51b8152602060048201526013602482015272111958591b1a5b99481b9bdd081c185cdcd959606a1b60448201526064016103ca565b60045460055410610b3b5760405162461bcd60e51b815260206004820152600c60248201526b11dbd85b081dd85cc81b595d60a21b60448201526064016103ca565b336000908152600b6020526040902054610b895760405162461bcd60e51b815260206004820152600f60248201526e27379031b7b73a3934b13aba34b7b760891b60448201526064016103ca565b336000818152600b602052604081208054919055600e549091610bb6916001600160a01b03169083611553565b60405181815233907f358fe4192934d3bf28ae181feda1f4bd08ca67f5e2fad55582cce5eb67304ae99060200160405180910390a2506106c160018055565b610bfd611529565b600754421115610c405760405162461bcd60e51b815260206004820152600e60248201526d10d85b5c185a59db88195b99195960921b60448201526064016103ca565b600854600160a01b900460ff16610c8f5760405162461bcd60e51b815260206004820152601360248201527243616d706169676e206e6f742061637469766560681b60448201526064016103ca565b60008111610cd45760405162461bcd60e51b81526020600482015260126024820152710416d6f756e74206d757374206265203e20360741b60448201526064016103ca565b600e54610cec906001600160a01b03163330846115b2565b336000908152600d602052604090205460ff16610d6057336000818152600d60205260408120805460ff19166001908117909155600c805491820181559091527fdf6966c971051c3d54ec59162606531493a51404a002842f56009d7e5cf4a8c70180546001600160a01b03191690911790555b336000908152600b602052604081208054839290610d7f908490611b9d565b909155505060058054829190600090610d99908490611b9d565b909155505060045460055410610db7576008805460ff60a01b191690555b60405181815233907f6770260ea820d2f539364e7617e021543aaf6d192f2fd2a47c20db6bd99a4eb99060200160405180910390a2610df560018055565b50565b600280548190610e0790611a08565b80601f0160208091040260200160405190810160405280929190818152602001828054610e3390611a08565b8015610e805780601f10610e5557610100808354040283529160200191610e80565b820191906000526020600020905b815481529060010190602001808311610e6357829003601f168201915b505050505090806001018054610e9590611a08565b80601f0160208091040260200160405190810160405280929190818152602001828054610ec190611a08565b8015610f0e5780601f10610ee357610100808354040283529160200191610f0e565b820191906000526020600020905b815481529060010190602001808311610ef157829003601f168201915b505050506002830154600384015460048501546005860154600687015460079097015495969395929450909290916001600160a01b03821691600160a01b900460ff169089565b610f5d6112a2565b60008211610fa25760405162461bcd60e51b81526020600482015260126024820152710416d6f756e74206d757374206265203e20360741b60448201526064016103ca565b428111610ff15760405162461bcd60e51b815260206004820152601a60248201527f446561646c696e65206d75737420626520696e2066757475726500000000000060448201526064016103ca565b6009546040805160e08101825285815260208101859052908101839052606081016000815260006020808301829052604080518083018252838152818501526060909301829052848252600a9052208151819061104e9082611a92565b50602082015181600101556040820151816002015560608201518160030160006101000a81548160ff0219169083600381111561108d5761108d611980565b02179055506080820151600482015560a082015160058201906110b09082611a92565b5060c091909101516006909101805460ff1916911515919091179055600980549060006110dc83611bd9565b919050555050505050565b600a6020526000908152604090208054819061110290611a08565b80601f016020809104026020016040519081016040528092919081815260200182805461112e90611a08565b801561117b5780601f106111505761010080835404028352916020019161117b565b820191906000526020600020905b81548152906001019060200180831161115e57829003601f168201915b50505060018401546002850154600386015460048701546005880180549798949793965060ff909216945092916111b190611a08565b80601f01602080910402602001604051908101604052809291908181526020018280546111dd90611a08565b801561122a5780601f106111ff5761010080835404028352916020019161122a565b820191906000526020600020905b81548152906001019060200180831161120d57829003601f168201915b5050506006909301549192505060ff1687565b600c818154811061124d57600080fd5b6000918252602090912001546001600160a01b0316905081565b61126f6112a2565b6001600160a01b03811661129957604051631e4fbdf760e01b8152600060048201526024016103ca565b610df5816114d9565b6000546001600160a01b031633146106c15760405163118cdaa760e01b81523360048201526024016103ca565b600f546000906001600160a01b0383811691161480156112f757506001600160a01b03821615155b92915050565b6000818152600a60205260409020600160038083015460ff169081111561132657611326611980565b146113735760405162461bcd60e51b815260206004820152601860248201527f496e76616c696420737461746520666f72207061796f7574000000000000000060448201526064016103ca565b6001810154600e546040516370a0823160e01b81523060048201526001600160a01b03909116906370a0823190602401602060405180830381865afa1580156113c0573d6000803e3d6000fd5b505050506040513d601f19601f820116820180604052508101906113e49190611bf2565b10156114325760405162461bcd60e51b815260206004820152601e60248201527f496e73756666696369656e742066756e647320696e20636f6e7472616374000060448201526064016103ca565b60038101805460ff1990811660021790915560068201805490911660019081179091558101546005805460009061146a908490611bb0565b9091555050600054611497906001600160a01b03166001830154600e546001600160a01b03169190611553565b817f80230996023d69b50793fa73f1919127c9d8e741d3989743c479169f22e7a28882600101546040516114cd91815260200190565b60405180910390a25050565b600080546001600160a01b038381166001600160a01b0319831681178455604051919092169283917f8be0079c531659141344cd1fd0a4f28419497f9722a3daafe3b4186f6b6457e09190a35050565b60026001540361154c57604051633ee5aeb560e01b815260040160405180910390fd5b6002600155565b6040516001600160a01b038381166024830152604482018390526104da91859182169063a9059cbb906064015b604051602081830303815290604052915060e01b6020820180516001600160e01b0383818316178352505050506115f1565b6040516001600160a01b0384811660248301528381166044830152606482018390526115eb9186918216906323b872dd90608401611580565b50505050565b600080602060008451602086016000885af180611614576040513d6000823e3d81fd5b50506000513d9150811561162c578060011415611639565b6001600160a01b0384163b155b156115eb57604051635274afe760e01b81526001600160a01b03851660048201526024016103ca565b60006020828403121561167457600080fd5b81356001600160a01b038116811461168b57600080fd5b9392505050565b600080604083850312156116a557600080fd5b82359150602083013560ff811681146116bd57600080fd5b809150509250929050565b634e487b7160e01b600052604160045260246000fd5b600082601f8301126116ef57600080fd5b813567ffffffffffffffff8082111561170a5761170a6116c8565b604051601f8301601f19908116603f01168101908282118183101715611732576117326116c8565b8160405283815286602085880101111561174b57600080fd5b836020870160208301376000602085830101528094505050505092915050565b6000806040838503121561177e57600080fd5b82359150602083013567ffffffffffffffff81111561179c57600080fd5b6117a8858286016116de565b9150509250929050565b600080604083850312156117c557600080fd5b50508035926020909101359150565b606080825284519082018190526000906020906080840190828801845b828110156118165781516001600160a01b0316845292840192908401906001016117f1565b5050508381038285015285518082528683019183019060005b8181101561184b5783518352928401929184019160010161182f565b50508515156040860152925061185f915050565b949350505050565b6000815180845260005b8181101561188d57602081850181015186830182015201611871565b506000602082860101526020601f19601f83011685010191505092915050565b60006101208083526118c18184018d611867565b905082810360208401526118d5818c611867565b604084019a909a5250506060810196909652608086019490945260a08501929092526001600160a01b031660c0840152151560e08301526101009091015292915050565b60006020828403121561192b57600080fd5b5035919050565b60008060006060848603121561194757600080fd5b833567ffffffffffffffff81111561195e57600080fd5b61196a868287016116de565b9660208601359650604090950135949350505050565b634e487b7160e01b600052602160045260246000fd5b60e0815260006119a960e083018a611867565b886020840152876040840152600487106119d357634e487b7160e01b600052602160045260246000fd5b86606084015285608084015282810360a08401526119f18186611867565b91505082151560c083015298975050505050505050565b600181811c90821680611a1c57607f821691505b602082108103611a3c57634e487b7160e01b600052602260045260246000fd5b50919050565b601f8211156104da576000816000526020600020601f850160051c81016020861015611a6b5750805b601f850160051c820191505b81811015611a8a57828155600101611a77565b505050505050565b815167ffffffffffffffff811115611aac57611aac6116c8565b611ac081611aba8454611a08565b84611a42565b602080601f831160018114611af55760008415611add5750858301515b600019600386901b1c1916600185901b178555611a8a565b600085815260208120601f198616915b82811015611b2457888601518255948401946001909101908401611b05565b5085821015611b425787850151600019600388901b60f8161c191681555b5050505050600190811b01905550565b60208152600061168b6020830184611867565b634e487b7160e01b600052601160045260246000fd5b600082611b9857634e487b7160e01b600052601260045260246000fd5b500490565b808201808211156112f7576112f7611b65565b818103818111156112f7576112f7611b65565b634e487b7160e01b600052603260045260246000fd5b600060018201611beb57611beb611b65565b5060010190565b600060208284031215611c0457600080fd5b505191905056fea2646970667358221220b8154745e37d5611b748d1c95402b897d03379e3444da3dc49368dabe7c411bb64736f6c63430008180033a26469706673582212207dce9ad360229cf51c5a07aead10e0977e3edd80fabfef6a588c8fa60117324d64736f6c6343000818003360806040523480156200001157600080fd5b506040516200260438038062002604833981016040819052620000349162000150565b336040518060400160405280600e81526020016d21b0b6b830b4b3b726b0b9ba32b960911b8152506040518060400160405280600581526020016410d353919560da1b81525081600090816200008b919062000229565b5060016200009a828262000229565b5050506001600160a01b038116620000cc57604051631e4fbdf760e01b81526000600482015260240160405180910390fd5b620000d781620000fe565b50600c80546001600160a01b0319166001600160a01b0392909216919091179055620002f5565b600780546001600160a01b038381166001600160a01b0319831681179093556040519116919082907f8be0079c531659141344cd1fd0a4f28419497f9722a3daafe3b4186f6b6457e090600090a35050565b6000602082840312156200016357600080fd5b81516001600160a01b03811681146200017b57600080fd5b9392505050565b634e487b7160e01b600052604160045260246000fd5b600181811c90821680620001ad57607f821691505b602082108103620001ce57634e487b7160e01b600052602260045260246000fd5b50919050565b601f82111562000224576000816000526020600020601f850160051c81016020861015620001ff5750805b601f850160051c820191505b8181101562000220578281556001016200020b565b5050505b505050565b81516001600160401b0381111562000245576200024562000182565b6200025d8162000256845462000198565b84620001d4565b602080601f8311600181146200029557600084156200027c5750858301515b600019600386901b1c1916600185901b17855562000220565b600085815260208120601f198616915b82811015620002c657888601518255948401946001909101908401620002a5565b5085821015620002e55787850151600019600388901b60f8161c191681555b5050505050600190811b01905550565b6122ff80620003056000396000f3fe608060405234801561001057600080fd5b50600436106101a95760003560e01c8063715018a6116100f9578063b88d4fde11610097578063e9b8a0a311610071578063e9b8a0a3146103b9578063f1537686146103cc578063f2fde38b146103df578063fc314e31146103f257600080fd5b8063b88d4fde14610380578063c87b56dd14610393578063e985e9c5146103a657600080fd5b80638da5cb5b116100d35780638da5cb5b1461033457806395d89b41146103455780639c2806c71461034d578063a22cb4651461036d57600080fd5b8063715018a6146102f65780637791d3f3146102fe578063785f8ee31461031157600080fd5b806323b872dd116101665780634231965411610140578063423196541461029c57806342842e0e146102af5780636352211e146102c257806370a08231146102d557600080fd5b806323b872dd146102635780632e88fea3146102765780632fbd68561461028957600080fd5b806301ffc9a7146101ae57806306fdde03146101d6578063081812fc146101eb578063095ea7b3146102165780631bbd1ff41461022b5780631c8e38ff14610250575b600080fd5b6101c16101bc366004611c4e565b610405565b60405190151581526020015b60405180910390f35b6101de610416565b6040516101cd9190611cbb565b6101fe6101f9366004611cce565b6104a8565b6040516001600160a01b0390911681526020016101cd565b610229610224366004611d03565b6104d1565b005b61023e610239366004611cce565b6104e0565b6040516101cd96959493929190611d2d565b6101c161025e366004611d90565b610764565b610229610271366004611dab565b6107bb565b610229610284366004611d90565b610846565b600c546101fe906001600160a01b031681565b6102296102aa366004611d90565b610a0e565b6102296102bd366004611dab565b610a8e565b6101fe6102d0366004611cce565b610aae565b6102e86102e3366004611d90565b610ab9565b6040519081526020016101cd565b610229610b01565b6102e861030c366004611e93565b610b15565b6101c161031f366004611d90565b600b6020526000908152604090205460ff1681565b6007546001600160a01b03166101fe565b6101de610d8a565b6102e861035b366004611d90565b600a6020526000908152604090205481565b61022961037b366004611f3c565b610d99565b61022961038e366004611f6f565b610da4565b6101de6103a1366004611cce565b610dbc565b6101c16103b4366004611fdf565b610dc7565b6102296103c7366004612009565b610df5565b6102e86103da366004611d90565b610f10565b6102296103ed366004611d90565b610f8f565b61023e610400366004611cce565b610fcd565b6000610410826111a7565b92915050565b60606000805461042590612060565b80601f016020809104026020016040519081016040528092919081815260200182805461045190612060565b801561049e5780601f106104735761010080835404028352916020019161049e565b820191906000526020600020905b81548152906001019060200180831161048157829003601f168201915b5050505050905090565b60006104b3826111cc565b506000828152600460205260409020546001600160a01b0316610410565b6104dc828233611205565b5050565b600080606080808380610508886000908152600260205260409020546001600160a01b031690565b6001600160a01b0316036105375760405162461bcd60e51b815260040161052e9061209a565b60405180910390fd5b6000878152600960209081526040808320815160c08101835281546001600160a01b03168152600182015493810193909352600281018054919284019161057d90612060565b80601f01602080910402602001604051908101604052809291908181526020018280546105a990612060565b80156105f65780601f106105cb576101008083540402835291602001916105f6565b820191906000526020600020905b8154815290600101906020018083116105d957829003601f168201915b5050505050815260200160038201805461060f90612060565b80601f016020809104026020016040519081016040528092919081815260200182805461063b90612060565b80156106885780601f1061065d57610100808354040283529160200191610688565b820191906000526020600020905b81548152906001019060200180831161066b57829003601f168201915b505050505081526020016004820180546106a190612060565b80601f01602080910402602001604051908101604052809291908181526020018280546106cd90612060565b801561071a5780601f106106ef5761010080835404028352916020019161071a565b820191906000526020600020905b8154815290600101906020018083116106fd57829003601f168201915b50505091835250506005919091015460ff16151560209182015281519082015160408301516060840151608085015160a090950151939d929c50909a509850919650945092505050565b6001600160a01b0381166000908152600b602052604081205460ff1661078c57506000919050565b506001600160a01b03166000908152600a60209081526040808320548352600990915290206005015460ff1690565b6001600160a01b0382166107e557604051633250574960e11b81526000600482015260240161052e565b60006107f2838333611212565b9050836001600160a01b0316816001600160a01b031614610840576040516364283d7b60e01b81526001600160a01b038086166004830152602482018490528216604482015260640161052e565b50505050565b600c546001600160a01b031633148061086957506007546001600160a01b031633145b6108a45760405162461bcd60e51b815260206004820152600c60248201526b155b985d5d1a1bdc9a5e995960a21b604482015260640161052e565b6001600160a01b0381166000908152600b602052604090205460ff166109075760405162461bcd60e51b815260206004820152601860248201527715d85b1b195d08191bd95cc81b9bdd081a185d994813919560421b604482015260640161052e565b6001600160a01b0381166000908152600a602052604081205490610940826000908152600260205260409020546001600160a01b031690565b6001600160a01b0316036109665760405162461bcd60e51b815260040161052e9061209a565b6000818152600960205260409020600501805460ff19169055610988816112aa565b6001600160a01b0382166000908152600a60209081526040808320839055600b8252808320805460ff191690558383526009909152812080546001600160a01b031916815560018101829055906109e26002830182611bea565b6109f0600383016000611bea565b6109fe600483016000611bea565b50600501805460ff191690555050565b610a166112e5565b6001600160a01b038116610a6c5760405162461bcd60e51b815260206004820152601760248201527f496e76616c696420666163746f72792061646472657373000000000000000000604482015260640161052e565b600c80546001600160a01b0319166001600160a01b0392909216919091179055565b610aa983838360405180602001604052806000815250610da4565b505050565b6000610410826111cc565b60006001600160a01b038216610ae5576040516322718ad960e21b81526000600482015260240161052e565b506001600160a01b031660009081526003602052604090205490565b610b096112e5565b610b136000611312565b565b600c546000906001600160a01b03163314610b725760405162461bcd60e51b815260206004820152601d60248201527f4f6e6c792043616d706169676e466163746f72792063616e206d696e74000000604482015260640161052e565b6001600160a01b0385166000908152600b602052604090205460ff1615610bdb5760405162461bcd60e51b815260206004820152601960248201527f526563697069656e7420616c726561647920686173204e465400000000000000604482015260640161052e565b6001600160a01b038516610c255760405162461bcd60e51b8152602060048201526011602482015270125b9d985b1a59081c9958da5c1a595b9d607a1b604482015260640161052e565b6008805460009182610c36836120c8565b919050559050610c468682611364565b610c5081846113c9565b6040805160c0810182526001600160a01b0388811682524260208084019182528385018a8152606085018a905260808501899052600160a086018190526000888152600990935295909120845181546001600160a01b031916941693909317835590519382019390935591519091906002820190610cce9082612137565b5060608201516003820190610ce39082612137565b5060808201516004820190610cf89082612137565b5060a091909101516005909101805491151560ff199283161790556001600160a01b0387166000818152600a60209081526040808320869055600b90915290819020805490931660011790925590518291907fe260f93729f4de5d60ff8d8ab8c7e6afc76218c4cc0f6f7e617398e20a358a2d90610d7990899089906121f7565b60405180910390a395945050505050565b60606001805461042590612060565b6104dc338383611419565b610daf8484846107bb565b61084033858585856114b8565b6060610410826115e3565b6001600160a01b03918216600090815260056020908152604080832093909416825291909152205460ff1690565b600c546001600160a01b0316331480610e1857506007546001600160a01b031633145b610e535760405162461bcd60e51b815260206004820152600c60248201526b155b985d5d1a1bdc9a5e995960a21b604482015260640161052e565b6000838152600260205260409020546001600160a01b0316610e875760405162461bcd60e51b815260040161052e9061209a565b6000838152600960205260409020600401610ea28382612137565b506000838152600960205260409020600501805460ff1916821515179055815115610ed157610ed183836113c9565b827f4961bf41987c62b9e8e45dd4a0af75e1af7f560b8dc0c4b58d4529a55117f1ad8383604051610f0392919061221c565b60405180910390a2505050565b6001600160a01b0381166000908152600b602052604081205460ff16610f735760405162461bcd60e51b815260206004820152601860248201527715d85b1b195d08191bd95cc81b9bdd081a185d994813919560421b604482015260640161052e565b506001600160a01b03166000908152600a602052604090205490565b610f976112e5565b6001600160a01b038116610fc157604051631e4fbdf760e01b81526000600482015260240161052e565b610fca81611312565b50565b6009602052600090815260409020805460018201546002830180546001600160a01b03909316939192610fff90612060565b80601f016020809104026020016040519081016040528092919081815260200182805461102b90612060565b80156110785780601f1061104d57610100808354040283529160200191611078565b820191906000526020600020905b81548152906001019060200180831161105b57829003601f168201915b50505050509080600301805461108d90612060565b80601f01602080910402602001604051908101604052809291908181526020018280546110b990612060565b80156111065780601f106110db57610100808354040283529160200191611106565b820191906000526020600020905b8154815290600101906020018083116110e957829003601f168201915b50505050509080600401805461111b90612060565b80601f016020809104026020016040519081016040528092919081815260200182805461114790612060565b80156111945780601f1061116957610100808354040283529160200191611194565b820191906000526020600020905b81548152906001019060200180831161117757829003601f168201915b5050506005909301549192505060ff1686565b60006001600160e01b03198216632483248360e11b14806104105750610410826116f4565b6000818152600260205260408120546001600160a01b03168061041057604051637e27328960e01b81526004810184905260240161052e565b610aa98383836001611744565b6000828152600260205260408120546001600160a01b0316801580159061124157506001600160a01b03851615155b15611296576001600160a01b038082166000908152600a60208181526040808420849055600b808352818520805460ff19908116909155958b1685529282528084208990559190529020805490911660011790555b6112a185858561184a565b95945050505050565b60006112b96000836000611212565b90506001600160a01b0381166104dc57604051637e27328960e01b81526004810183905260240161052e565b6007546001600160a01b03163314610b135760405163118cdaa760e01b815233600482015260240161052e565b600780546001600160a01b038381166001600160a01b0319831681179093556040519116919082907f8be0079c531659141344cd1fd0a4f28419497f9722a3daafe3b4186f6b6457e090600090a35050565b6001600160a01b03821661138e57604051633250574960e11b81526000600482015260240161052e565b600061139c83836000611212565b90506001600160a01b03811615610aa9576040516339e3563760e11b81526000600482015260240161052e565b60008281526006602052604090206113e18282612137565b506040518281527ff8e1a15aba9398e019f0b49df1a4fde98ee17ae345cb5f6b5e2c27f5033e8ce79060200160405180910390a15050565b6001600160a01b03821661144b57604051630b61174360e31b81526001600160a01b038316600482015260240161052e565b6001600160a01b03838116600081815260056020908152604080832094871680845294825291829020805460ff191686151590811790915591519182527f17307eab39ab6107e8899845ad3d59bd9653f200f220920489ca2b5937696c31910160405180910390a3505050565b6001600160a01b0383163b156115dc57604051630a85bd0160e11b81526001600160a01b0384169063150b7a02906114fa908890889087908790600401612240565b6020604051808303816000875af1925050508015611535575060408051601f3d908101601f191682019092526115329181019061227d565b60015b61159e573d808015611563576040519150601f19603f3d011682016040523d82523d6000602084013e611568565b606091505b50805160000361159657604051633250574960e11b81526001600160a01b038516600482015260240161052e565b805160208201fd5b6001600160e01b03198116630a85bd0160e11b146115da57604051633250574960e11b81526001600160a01b038516600482015260240161052e565b505b5050505050565b60606115ee826111cc565b506000828152600660205260408120805461160890612060565b80601f016020809104026020016040519081016040528092919081815260200182805461163490612060565b80156116815780601f1061165657610100808354040283529160200191611681565b820191906000526020600020905b81548152906001019060200180831161166457829003601f168201915b50505050509050600061169f60408051602081019091526000815290565b905080516000036116b1575092915050565b8151156116e35780826040516020016116cb92919061229a565b60405160208183030381529060405292505050919050565b6116ec84611943565b949350505050565b60006001600160e01b031982166380ac58cd60e01b148061172557506001600160e01b03198216635b5e139f60e01b145b8061041057506301ffc9a760e01b6001600160e01b0319831614610410565b808061175857506001600160a01b03821615155b1561181a576000611768846111cc565b90506001600160a01b038316158015906117945750826001600160a01b0316816001600160a01b031614155b80156117a757506117a58184610dc7565b155b156117d05760405163a9fbf51f60e01b81526001600160a01b038416600482015260240161052e565b81156118185783856001600160a01b0316826001600160a01b03167f8c5be1e5ebec7d5bd14f71427d1e84f3dd0314c0f7b2291e5b200ac8c7c3b92560405160405180910390a45b505b5050600090815260046020526040902080546001600160a01b0319166001600160a01b0392909216919091179055565b6000828152600260205260408120546001600160a01b0390811690831615611877576118778184866119b8565b6001600160a01b038116156118b557611894600085600080611744565b6001600160a01b038116600090815260036020526040902080546000190190555b6001600160a01b038516156118e4576001600160a01b0385166000908152600360205260409020805460010190555b60008481526002602052604080822080546001600160a01b0319166001600160a01b0389811691821790925591518793918516917fddf252ad1be2c89b69c2b068fc378daa952ba7f163c4a11628f55a4df523b3ef91a4949350505050565b606061194e826111cc565b50600061196660408051602081019091526000815290565b9050600081511161198657604051806020016040528060008152506119b1565b8061199084611a1c565b6040516020016119a192919061229a565b6040516020818303038152906040525b9392505050565b6119c3838383611aaf565b610aa9576001600160a01b0383166119f157604051637e27328960e01b81526004810182905260240161052e565b60405163177e802f60e01b81526001600160a01b03831660048201526024810182905260440161052e565b60606000611a2983611b12565b600101905060008167ffffffffffffffff811115611a4957611a49611de7565b6040519080825280601f01601f191660200182016040528015611a73576020820181803683370190505b5090508181016020015b600019016f181899199a1a9b1b9c1cb0b131b232b360811b600a86061a8153600a8504945084611a7d57509392505050565b60006001600160a01b038316158015906116ec5750826001600160a01b0316846001600160a01b03161480611ae95750611ae98484610dc7565b806116ec5750506000908152600460205260409020546001600160a01b03908116911614919050565b60008072184f03e93ff9f4daa797ed6e38ed64bf6a1f0160401b8310611b515772184f03e93ff9f4daa797ed6e38ed64bf6a1f0160401b830492506040015b6d04ee2d6d415b85acef81000000008310611b7d576d04ee2d6d415b85acef8100000000830492506020015b662386f26fc100008310611b9b57662386f26fc10000830492506010015b6305f5e1008310611bb3576305f5e100830492506008015b6127108310611bc757612710830492506004015b60648310611bd9576064830492506002015b600a83106104105760010192915050565b508054611bf690612060565b6000825580601f10611c06575050565b601f016020900490600052602060002090810190610fca91905b80821115611c345760008155600101611c20565b5090565b6001600160e01b031981168114610fca57600080fd5b600060208284031215611c6057600080fd5b81356119b181611c38565b60005b83811015611c86578181015183820152602001611c6e565b50506000910152565b60008151808452611ca7816020860160208601611c6b565b601f01601f19169290920160200192915050565b6020815260006119b16020830184611c8f565b600060208284031215611ce057600080fd5b5035919050565b80356001600160a01b0381168114611cfe57600080fd5b919050565b60008060408385031215611d1657600080fd5b611d1f83611ce7565b946020939093013593505050565b60018060a01b038716815285602082015260c060408201526000611d5460c0830187611c8f565b8281036060840152611d668187611c8f565b90508281036080840152611d7a8186611c8f565b91505082151560a0830152979650505050505050565b600060208284031215611da257600080fd5b6119b182611ce7565b600080600060608486031215611dc057600080fd5b611dc984611ce7565b9250611dd760208501611ce7565b9150604084013590509250925092565b634e487b7160e01b600052604160045260246000fd5b600067ffffffffffffffff80841115611e1857611e18611de7565b604051601f8501601f19908116603f01168101908282118183101715611e4057611e40611de7565b81604052809350858152868686011115611e5957600080fd5b858560208301376000602087830101525050509392505050565b600082601f830112611e8457600080fd5b6119b183833560208501611dfd565b60008060008060808587031215611ea957600080fd5b611eb285611ce7565b9350602085013567ffffffffffffffff80821115611ecf57600080fd5b611edb88838901611e73565b94506040870135915080821115611ef157600080fd5b611efd88838901611e73565b93506060870135915080821115611f1357600080fd5b50611f2087828801611e73565b91505092959194509250565b80358015158114611cfe57600080fd5b60008060408385031215611f4f57600080fd5b611f5883611ce7565b9150611f6660208401611f2c565b90509250929050565b60008060008060808587031215611f8557600080fd5b611f8e85611ce7565b9350611f9c60208601611ce7565b925060408501359150606085013567ffffffffffffffff811115611fbf57600080fd5b8501601f81018713611fd057600080fd5b611f2087823560208401611dfd565b60008060408385031215611ff257600080fd5b611ffb83611ce7565b9150611f6660208401611ce7565b60008060006060848603121561201e57600080fd5b83359250602084013567ffffffffffffffff81111561203c57600080fd5b61204886828701611e73565b92505061205760408501611f2c565b90509250925092565b600181811c9082168061207457607f821691505b60208210810361209457634e487b7160e01b600052602260045260246000fd5b50919050565b602080825260149082015273151bdad95b88191bd95cc81b9bdd08195e1a5cdd60621b604082015260600190565b6000600182016120e857634e487b7160e01b600052601160045260246000fd5b5060010190565b601f821115610aa9576000816000526020600020601f850160051c810160208610156121185750805b601f850160051c820191505b818110156115da57828155600101612124565b815167ffffffffffffffff81111561215157612151611de7565b6121658161215f8454612060565b846120ef565b602080601f83116001811461219a57600084156121825750858301515b600019600386901b1c1916600185901b1785556115da565b600085815260208120601f198616915b828110156121c9578886015182559484019460019091019084016121aa565b50858210156121e75787850151600019600388901b60f8161c191681555b5050505050600190811b01905550565b60408152600061220a6040830185611c8f565b82810360208401526112a18185611c8f565b60408152600061222f6040830185611c8f565b905082151560208301529392505050565b6001600160a01b038581168252841660208201526040810183905260806060820181905260009061227390830184611c8f565b9695505050505050565b60006020828403121561228f57600080fd5b81516119b181611c38565b600083516122ac818460208801611c6b565b8351908301906122c0818360208801611c6b565b0194935050505056fea26469706673582212209dec70335205873382ca24a6e1a1bae7069e5c9429abdf41ea9cf0fc49c2fd4d64736f6c63430008180033","linkReferences":{}},"methodIdentifiers":{"CAMPAIGN_MASTER_NFT()":"eb34b243","DEFAULT_AI_HANDLER()":"54d0d48a","PYUSD()":"9e19789d","batchSetKYCStatus(address[],bool[])":"bba91ff0","campaigns(uint256)":"141961bc","canCreateCampaign(address)":"3adc43a7","createCampaign(string,string,uint256,uint256)":"a318f269","createCampaign(string,string,uint256,uint256,uint256[])":"e022b300","creatorCampaigns(address,uint256)":"ddc8af61","getActiveCampaignsCount()":"b97d57ea","getAllCampaigns()":"86cdf604","getCampaign(uint256)":"5598f8cc","getCampaignCount()":"6caa9218","getCampaignsByCreator(address)":"d5b8d84a","getCampaignsPaginated(uint256,uint256)":"f597c73b","getKYCDetails(address)":"c3d04bc6","isKYCVerified(address)":"54b7636e","kycOracle()":"c9c251d2","kycVerifiedAt(address)":"ea9fb1ba","setKYCOracle(address)":"6bca5f18","setKYCStatus(address,bool)":"a3f569ae"},"id":42}