{"abi":[{"type":"constructor","inputs":[{"name":"_pyusd","type":"address","internalType":"address"},{"name":"_defaultAiHandler","type":"address","internalType":"address"}],"stateMutability":"nonpayable"},{"type":"function","name":"DEFAULT_AI_HANDLER","inputs":[],"outputs":[{"name":"","type":"address","internalType":"address"}],"stateMutability":"view"},{"type":"function","name":"PYUSD","inputs":[],"outputs":[{"name":"","type":"address","internalType":"address"}],"stateMutability":"view"},{"type":"function","name":"campaigns","inputs":[{"name":"","type":"uint256","internalType":"uint256"}],"outputs":[{"name":"campaignAddress","type":"address","internalType":"address"},{"name":"creator","type":"address","internalType":"address"},{"name":"title","type":"string","internalType":"string"},{"name":"createdAt","type":"uint256","internalType":"uint256"},{"name":"isActive","type":"bool","internalType":"bool"}],"stateMutability":"view"},{"type":"function","name":"createCampaign","inputs":[{"name":"_title","type":"string","internalType":"string"},{"name":"_description","type":"string","internalType":"string"},{"name":"_goal","type":"uint256","internalType":"uint256"},{"name":"_duration","type":"uint256","internalType":"uint256"}],"outputs":[{"name":"","type":"address","internalType":"address"}],"stateMutability":"nonpayable"},{"type":"function","name":"createCampaign","inputs":[{"name":"_title","type":"string","internalType":"string"},{"name":"_description","type":"string","internalType":"string"},{"name":"_goal","type":"uint256","internalType":"uint256"},{"name":"_duration","type":"uint256","internalType":"uint256"},{"name":"_milestoneAmounts","type":"uint256[]","internalType":"uint256[]"}],"outputs":[{"name":"","type":"address","internalType":"address"}],"stateMutability":"nonpayable"},{"type":"function","name":"creatorCampaigns","inputs":[{"name":"","type":"address","internalType":"address"},{"name":"","type":"uint256","internalType":"uint256"}],"outputs":[{"name":"","type":"uint256","internalType":"uint256"}],"stateMutability":"view"},{"type":"function","name":"getActiveCampaignsCount","inputs":[],"outputs":[{"name":"","type":"uint256","internalType":"uint256"}],"stateMutability":"view"},{"type":"function","name":"getAllCampaigns","inputs":[],"outputs":[{"name":"","type":"tuple[]","internalType":"struct CampaignFactory.CampaignData[]","components":[{"name":"campaignAddress","type":"address","internalType":"address"},{"name":"creator","type":"address","internalType":"address"},{"name":"title","type":"string","internalType":"string"},{"name":"createdAt","type":"uint256","internalType":"uint256"},{"name":"isActive","type":"bool","internalType":"bool"}]}],"stateMutability":"view"},{"type":"function","name":"getCampaign","inputs":[{"name":"_index","type":"uint256","internalType":"uint256"}],"outputs":[{"name":"","type":"tuple","internalType":"struct CampaignFactory.CampaignData","components":[{"name":"campaignAddress","type":"address","internalType":"address"},{"name":"creator","type":"address","internalType":"address"},{"name":"title","type":"string","internalType":"string"},{"name":"createdAt","type":"uint256","internalType":"uint256"},{"name":"isActive","type":"bool","internalType":"bool"}]}],"stateMutability":"view"},{"type":"function","name":"getCampaignCount","inputs":[],"outputs":[{"name":"","type":"uint256","internalType":"uint256"}],"stateMutability":"view"},{"type":"function","name":"getCampaignsByCreator","inputs":[{"name":"_creator","type":"address","internalType":"address"}],"outputs":[{"name":"","type":"uint256[]","internalType":"uint256[]"}],"stateMutability":"view"},{"type":"function","name":"getCampaignsPaginated","inputs":[{"name":"_offset","type":"uint256","internalType":"uint256"},{"name":"_limit","type":"uint256","internalType":"uint256"}],"outputs":[{"name":"","type":"tuple[]","internalType":"struct CampaignFactory.CampaignData[]","components":[{"name":"campaignAddress","type":"address","internalType":"address"},{"name":"creator","type":"address","internalType":"address"},{"name":"title","type":"string","internalType":"string"},{"name":"createdAt","type":"uint256","internalType":"uint256"},{"name":"isActive","type":"bool","internalType":"bool"}]}],"stateMutability":"view"},{"type":"event","name":"CampaignCreated","inputs":[{"name":"campaignAddress","type":"address","indexed":true,"internalType":"address"},{"name":"creator","type":"address","indexed":true,"internalType":"address"},{"name":"title","type":"string","indexed":false,"internalType":"string"},{"name":"goal","type":"uint256","indexed":false,"internalType":"uint256"},{"name":"duration","type":"uint256","indexed":false,"internalType":"uint256"}],"anonymous":false}],"bytecode":{"object":"0x60c060405234801561001057600080fd5b50604051620037f5380380620037f583398101604081905261003191610064565b6001600160a01b039182166080521660a052610097565b80516001600160a01b038116811461005f57600080fd5b919050565b6000806040838503121561007757600080fd5b61008083610048565b915061008e60208401610048565b90509250929050565b60805160a05161372a620000cb600039600081816101010152610b4d0152600081816101940152610b2a015261372a6000f3fe60806040523480156200001157600080fd5b5060043610620000c35760003560e01c8063a318f269116200007a578063a318f26914620001b6578063b97d57ea14620001cd578063d5b8d84a14620001d7578063ddc8af6114620001fd578063e022b3001462000214578063f597c73b146200022b57600080fd5b8063141961bc14620000c857806354d0d48a14620000fb5780635598f8cc146200013c5780636caa9218146200016257806386cdf60414620001755780639e19789d146200018e575b600080fd5b620000df620000d936600462000d99565b62000242565b604051620000f295949392919062000dfb565b60405180910390f35b620001237f000000000000000000000000000000000000000000000000000000000000000081565b6040516001600160a01b039091168152602001620000f2565b620001536200014d36600462000d99565b62000327565b604051620000f2919062000e9b565b6000545b604051908152602001620000f2565b6200017f62000490565b604051620000f2919062000eb7565b620001237f000000000000000000000000000000000000000000000000000000000000000081565b62000123620001c736600462000fe0565b620005cd565b62000166620005f6565b620001ee620001e836600462001078565b62000658565b604051620000f29190620010d4565b620001666200020e366004620010e9565b620006c6565b620001236200022536600462001116565b620006f8565b6200017f6200023c36600462001228565b62000709565b600081815481106200025357600080fd5b60009182526020909120600590910201805460018201546002830180546001600160a01b0393841695509290911692916200028e906200124b565b80601f0160208091040260200160405190810160405280929190818152602001828054620002bc906200124b565b80156200030d5780601f10620002e1576101008083540402835291602001916200030d565b820191906000526020600020905b815481529060010190602001808311620002ef57829003601f168201915b50505050600383015460049093015491929160ff16905085565b6200033162000d48565b6000548210620003815760405162461bcd60e51b8152602060048201526016602482015275092dcecc2d8d2c840c6c2dae0c2d2cedc40d2dcc8caf60531b60448201526064015b60405180910390fd5b6000828154811062000397576200039762001281565b60009182526020918290206040805160a081018252600590930290910180546001600160a01b0390811684526001820154169383019390935260028301805492939291840191620003e8906200124b565b80601f016020809104026020016040519081016040528092919081815260200182805462000416906200124b565b8015620004675780601f106200043b5761010080835404028352916020019162000467565b820191906000526020600020905b8154815290600101906020018083116200044957829003601f168201915b50505091835250506003820154602082015260049091015460ff16151560409091015292915050565b60606000805480602002602001604051908101604052809291908181526020016000905b82821015620005c45760008481526020908190206040805160a0810182526005860290920180546001600160a01b03908116845260018201541693830193909352600283018054929392918401916200050d906200124b565b80601f01602080910402602001604051908101604052809291908181526020018280546200053b906200124b565b80156200058c5780601f1062000560576101008083540402835291602001916200058c565b820191906000526020600020905b8154815290600101906020018083116200056e57829003601f168201915b5050509183525050600382015460208083019190915260049092015460ff1615156040909101529082526001929092019101620004b4565b50505050905090565b60408051600080825260208201909252620005ec868686868562000935565b9695505050505050565b600080805b6000548110156200065257600081815481106200061c576200061c62001281565b600091825260209091206004600590920201015460ff16156200064957816200064581620012ad565b9250505b600101620005fb565b50919050565b6001600160a01b038116600090815260016020908152604091829020805483518184028101840190945280845260609392830182828015620006ba57602002820191906000526020600020905b815481526020019060010190808311620006a5575b50505050509050919050565b60016020528160005260406000208181548110620006e357600080fd5b90600052602060002001600091509150505481565b6000620005ec868686868662000935565b6000546060908310620007565760405162461bcd60e51b81526020600482015260146024820152734f6666736574206f7574206f6620626f756e647360601b604482015260640162000378565b6000548290620007678286620012c9565b111562000781576000546200077e908590620012df565b90505b60008167ffffffffffffffff8111156200079f576200079f62000f1f565b604051908082528060200260200182016040528015620007dc57816020015b620007c862000d48565b815260200190600190039081620007be5790505b50905060005b828110156200092a576000620007f98288620012c9565b815481106200080c576200080c62001281565b60009182526020918290206040805160a081018252600590930290910180546001600160a01b03908116845260018201541693830193909352600283018054929392918401916200085d906200124b565b80601f01602080910402602001604051908101604052809291908181526020018280546200088b906200124b565b8015620008dc5780601f10620008b057610100808354040283529160200191620008dc565b820191906000526020600020905b815481529060010190602001808311620008be57829003601f168201915b50505091835250506003820154602082015260049091015460ff161515604090910152825183908390811062000916576200091662001281565b6020908102919091010152600101620007e2565b509150505b92915050565b60008084116200097b5760405162461bcd60e51b815260206004820152601060248201526f0476f616c206d757374206265203e20360841b604482015260640162000378565b62015180831015620009d05760405162461bcd60e51b815260206004820152601f60248201527f4475726174696f6e206d757374206265206174206c6561737420312064617900604482015260640162000378565b6301e1338083111562000a265760405162461bcd60e51b815260206004820152601d60248201527f4475726174696f6e2063616e6e6f742065786365656420312079656172000000604482015260640162000378565b81511562000b22576000805b835181101562000ad457600084828151811062000a535762000a5362001281565b60200260200101511162000a9f5760405162461bcd60e51b815260206004820152601260248201527104d696c6573746f6e65206d757374203e20360741b604482015260640162000378565b83818151811062000ab45762000ab462001281565b60200260200101518262000ac99190620012c9565b915060010162000a32565b508481111562000b205760405162461bcd60e51b8152602060048201526016602482015275135a5b195cdd1bdb995cc8195e18d959590819dbd85b60521b604482015260640162000378565b505b6000868686867f000000000000000000000000000000000000000000000000000000000000000033887f000000000000000000000000000000000000000000000000000000000000000060405162000b7a9062000d8b565b62000b8d989796959493929190620012f5565b604051809103906000f08015801562000baa573d6000803e3d6000fd5b506040805160a0810182526001600160a01b03808416825233602083019081529282018b81524260608401526001608084018190526000805491820181558052835160059091027f290decd9548b62a8d60345a988386fc84ba6bc95484008f6362f93160ef3e563810180549285166001600160a01b031993841617815595517f290decd9548b62a8d60345a988386fc84ba6bc95484008f6362f93160ef3e56482018054919095169216919091179092555193945084939192839290917f290decd9548b62a8d60345a988386fc84ba6bc95484008f6362f93160ef3e565019062000c979082620013cc565b50606082015160038201556080909101516004909101805460ff19169115159190911790553360009081526001602081905260408220915462000cdb9190620012df565b8154600181018355600092835260209092209091015560405133906001600160a01b038416907f810c1f0481c76c27bfb99d47b443b405e6f4d247fb07302759cb36d58742d07f9062000d34908d908c908c9062001499565b60405180910390a350979650505050505050565b6040518060a0016040528060006001600160a01b0316815260200160006001600160a01b0316815260200160608152602001600081526020016000151581525090565b61223480620014c183390190565b60006020828403121562000dac57600080fd5b5035919050565b6000815180845260005b8181101562000ddb5760208185018101518683018201520162000dbd565b506000602082860101526020601f19601f83011685010191505092915050565b6001600160a01b0386811682528516602082015260a06040820181905260009062000e299083018662000db3565b6060830194909452509015156080909101529392505050565b600060018060a01b0380835116845280602084015116602085015250604082015160a0604085015262000e7960a085018262000db3565b9050606083015160608501526080830151151560808501528091505092915050565b60208152600062000eb0602083018462000e42565b9392505050565b600060208083016020845280855180835260408601915060408160051b87010192506020870160005b8281101562000f1257603f1988860301845262000eff85835162000e42565b9450928501929085019060010162000ee0565b5092979650505050505050565b634e487b7160e01b600052604160045260246000fd5b604051601f8201601f1916810167ffffffffffffffff8111828210171562000f615762000f6162000f1f565b604052919050565b600082601f83011262000f7b57600080fd5b813567ffffffffffffffff81111562000f985762000f9862000f1f565b62000fad601f8201601f191660200162000f35565b81815284602083860101111562000fc357600080fd5b816020850160208301376000918101602001919091529392505050565b6000806000806080858703121562000ff757600080fd5b843567ffffffffffffffff808211156200101057600080fd5b6200101e8883890162000f69565b955060208701359150808211156200103557600080fd5b50620010448782880162000f69565b949794965050505060408301359260600135919050565b80356001600160a01b03811681146200107357600080fd5b919050565b6000602082840312156200108b57600080fd5b62000eb0826200105b565b60008151808452602080850194506020840160005b83811015620010c957815187529582019590820190600101620010ab565b509495945050505050565b60208152600062000eb0602083018462001096565b60008060408385031215620010fd57600080fd5b62001108836200105b565b946020939093013593505050565b600080600080600060a086880312156200112f57600080fd5b853567ffffffffffffffff808211156200114857600080fd5b6200115689838a0162000f69565b96506020915081880135818111156200116e57600080fd5b6200117c8a828b0162000f69565b9650506040880135945060608801359350608088013581811115620011a057600080fd5b8801601f81018a13620011b257600080fd5b803582811115620011c757620011c762000f1f565b8060051b9250620011da84840162000f35565b818152928201840192848101908c851115620011f557600080fd5b928501925b848410156200121557833582529285019290850190620011fa565b8096505050505050509295509295909350565b600080604083850312156200123c57600080fd5b50508035926020909101359150565b600181811c908216806200126057607f821691505b6020821081036200065257634e487b7160e01b600052602260045260246000fd5b634e487b7160e01b600052603260045260246000fd5b634e487b7160e01b600052601160045260246000fd5b600060018201620012c257620012c262001297565b5060010190565b808201808211156200092f576200092f62001297565b818103818111156200092f576200092f62001297565b60006101008083526200130b8184018c62000db3565b9050828103602084015262001321818b62000db3565b604084018a9052606084018990526001600160a01b03888116608086015287811660a086015284820360c08601529091506200135e828762001096565b925080851660e085015250509998505050505050505050565b601f821115620013c7576000816000526020600020601f850160051c81016020861015620013a25750805b601f850160051c820191505b81811015620013c357828155600101620013ae565b5050505b505050565b815167ffffffffffffffff811115620013e957620013e962000f1f565b6200140181620013fa84546200124b565b8462001377565b602080601f831160018114620014395760008415620014205750858301515b600019600386901b1c1916600185901b178555620013c3565b600085815260208120601f198616915b828110156200146a5788860151825594840194600190910190840162001449565b5085821015620014895787850151600019600388901b60f8161c191681555b5050505050600190811b01905550565b606081526000620014ae606083018662000db3565b6020830194909452506040015291905056fe60806040523480156200001157600080fd5b5060405162002234380380620022348339810160408190526200003491620006a2565b826001600160a01b0381166200006557604051631e4fbdf760e01b8152600060048201526024015b60405180910390fd5b6200007081620004d7565b506001805585620000b75760405162461bcd60e51b815260206004820152601060248201526f0476f616c206d757374206265203e20360841b60448201526064016200005c565b60008511620001095760405162461bcd60e51b815260206004820152601460248201527f4475726174696f6e206d757374206265203e203000000000000000000000000060448201526064016200005c565b6001600160a01b038416620001505760405162461bcd60e51b815260206004820152600c60248201526b5a65726f206164647265737360a01b60448201526064016200005c565b6001600160a01b038316620001975760405162461bcd60e51b815260206004820152600c60248201526b2d32b9379031b932b0ba37b960a11b60448201526064016200005c565b604051806101200160405280898152602001888152602001878152602001600081526020014281526020018642620001d091906200077f565b81526001600160a01b03851660208201526001604082015260006060909101528051600290819062000203908262000838565b50602082015160018201906200021a908262000838565b5060408201516002820155606082015160038201556080820151600482015560a0820151600582015560c082015160068201805460e08501511515600160a01b026001600160a81b03199091166001600160a01b039384161717905561010090920151600790910155600e80548683166001600160a01b031991821617909155600f8054928416929091169190911790556000805b835181101562000471576000848281518110620002d057620002d062000904565b6020026020010151116200031c5760405162461bcd60e51b815260206004820152601260248201527104d696c6573746f6e65206d757374203e20360741b60448201526064016200005c565b6040518060e0016040528060405180602001604052806000815250815260200185838151811062000351576200035162000904565b6020026020010151815260200160008152602001600060038111156200037b576200037b6200091a565b815260006020808301829052604080518083018252838152818501526060909301829052848252600a90522081518190620003b7908262000838565b50602082015181600101556040820151816002015560608201518160030160006101000a81548160ff02191690836003811115620003f957620003f96200091a565b02179055506080820151600482015560a082015160058201906200041e908262000838565b5060c091909101516006909101805460ff1916911515919091179055835184908290811062000451576200045162000904565b6020026020010151826200046691906200077f565b9150600101620002af565b5086811115620004c45760405162461bcd60e51b815260206004820152601660248201527f4d696c6573746f6e65732065786365656420676f616c0000000000000000000060448201526064016200005c565b5050516009555062000930945050505050565b600080546001600160a01b038381166001600160a01b0319831681178455604051919092169283917f8be0079c531659141344cd1fd0a4f28419497f9722a3daafe3b4186f6b6457e09190a35050565b634e487b7160e01b600052604160045260246000fd5b604051601f8201601f191681016001600160401b038111828210171562000568576200056862000527565b604052919050565b600082601f8301126200058257600080fd5b81516001600160401b038111156200059e576200059e62000527565b6020620005b4601f8301601f191682016200053d565b8281528582848701011115620005c957600080fd5b60005b83811015620005e9578581018301518282018401528201620005cc565b506000928101909101919091529392505050565b80516001600160a01b03811681146200061557600080fd5b919050565b600082601f8301126200062c57600080fd5b815160206001600160401b038211156200064a576200064a62000527565b8160051b6200065b8282016200053d565b92835284810182019282810190878511156200067657600080fd5b83870192505b8483101562000697578251825291830191908301906200067c565b979650505050505050565b600080600080600080600080610100898b031215620006c057600080fd5b88516001600160401b0380821115620006d857600080fd5b620006e68c838d0162000570565b995060208b0151915080821115620006fd57600080fd5b6200070b8c838d0162000570565b985060408b0151975060608b015196506200072960808c01620005fd565b95506200073960a08c01620005fd565b945060c08b01519150808211156200075057600080fd5b506200075f8b828c016200061a565b9250506200077060e08a01620005fd565b90509295985092959890939650565b80820180821115620007a157634e487b7160e01b600052601160045260246000fd5b92915050565b600181811c90821680620007bc57607f821691505b602082108103620007dd57634e487b7160e01b600052602260045260246000fd5b50919050565b601f82111562000833576000816000526020600020601f850160051c810160208610156200080e5750805b601f850160051c820191505b818110156200082f578281556001016200081a565b5050505b505050565b81516001600160401b0381111562000854576200085462000527565b6200086c81620008658454620007a7565b84620007e3565b602080601f831160018114620008a457600084156200088b5750858301515b600019600386901b1c1916600185901b1785556200082f565b600085815260208120601f198616915b82811015620008d557888601518255948401946001909101908401620008b4565b5085821015620008f45787850151600019600388901b60f8161c191681555b5050505050600190811b01905550565b634e487b7160e01b600052603260045260246000fd5b634e487b7160e01b600052602160045260246000fd5b6118f480620009406000396000f3fe608060405234801561001057600080fd5b50600436106101165760003560e01c80638da5cb5b116100a2578063c2ea6a7f11610071578063c2ea6a7f1461024f578063c3c3105614610257578063e89e4ed61461026a578063e9d8002014610290578063f2fde38b146102a357600080fd5b80638da5cb5b14610206578063a00c96d714610217578063b5545a3c14610234578063c1cbbca71461023c57600080fd5b80632fb37fef116100e95780632fb37fef1461018557806342e94c9014610198578063476a119b146101b8578063715018a6146101cb578063746fcab7146101d357600080fd5b80630878ffe31461011b5780631d565e781461013057806322e669d3146101475780632b37ce8d14610172575b600080fd5b61012e610129366004611402565b6102b6565b005b600c545b6040519081526020015b60405180910390f35b600e5461015a906001600160a01b031681565b6040516001600160a01b03909116815260200161013e565b600f5461015a906001600160a01b031681565b61012e610193366004611432565b610310565b6101346101a6366004611402565b600b6020526000908152604090205481565b61012e6101c636600461150b565b6104e5565b61012e61062b565b6101f66101e1366004611402565b600d6020526000908152604090205460ff1681565b604051901515815260200161013e565b6000546001600160a01b031661015a565b61021f61063f565b60405161013e99989796959493929190611598565b61012e61084a565b61012e61024a366004611604565b610995565b61021f610b98565b61012e61026536600461161d565b610cf5565b61027d610278366004611604565b610e87565b60405161013e9796959493929190611681565b61015a61029e366004611604565b610fdd565b61012e6102b1366004611402565b611007565b6102be611042565b600f80546001600160a01b038381166001600160a01b0319831681179093556040519116919082907f44a67b7e4c75d366b5b73a058e417c0910f6b7ef4860f7b8cf510a5df1ab7a2290600090a35050565b6000546001600160a01b031633148061032d575061032d3361106f565b6103735760405162461bcd60e51b815260206004820152601260248201527127b7363c9020a49037b91031b932b0ba37b960711b60448201526064015b60405180910390fd5b60095482106103b85760405162461bcd60e51b8152602060048201526011602482015270496e76616c6964206d696c6573746f6e6560781b604482015260640161036a565b6000828152600a60205260409020600160038083015460ff16908111156103e1576103e161166b565b1461042e5760405162461bcd60e51b815260206004820152601760248201527f4d696c6573746f6e65206e6f74207375626d6974746564000000000000000000604482015260640161036a565b60405160ff8316815283907fe90edf17af9e0faec80c6ac87ec2e813590ce6acc79b6d254bc0d5d2dbb81a179060200160405180910390a28160ff1660010361047f5761047a8361109d565b505050565b60ff8216158061049257508160ff166002145b156104ab576003908101805460ff191690911790555050565b60405162461bcd60e51b815260206004820152600f60248201526e125b9d985b1a59081d995c991a58dd608a1b604482015260640161036a565b6104ed611042565b60095482106105325760405162461bcd60e51b8152602060048201526011602482015270496e76616c6964206d696c6573746f6e6560781b604482015260640161036a565b6000828152600a602052604081209060038083015460ff169081111561055a5761055a61166b565b148061057c575060038181015460ff168181111561057a5761057a61166b565b145b6105c85760405162461bcd60e51b815260206004820152601c60248201527f496e76616c696420737461746520666f72207375626d697373696f6e00000000604482015260640161036a565b600581016105d6838261177d565b5060038101805460ff1916600117905542600482015560405183907f6c4ed5f8d6ddf265b243b3e007707e3374049d833dfc7791c66c06579aa10ff99061061e90859061183d565b60405180910390a2505050565b610633611042565b61063d6000611279565b565b60608060008060008060008060008060026040518061012001604052908160008201805461066c906116f3565b80601f0160208091040260200160405190810160405280929190818152602001828054610698906116f3565b80156106e55780601f106106ba576101008083540402835291602001916106e5565b820191906000526020600020905b8154815290600101906020018083116106c857829003601f168201915b505050505081526020016001820180546106fe906116f3565b80601f016020809104026020016040519081016040528092919081815260200182805461072a906116f3565b80156107775780601f1061074c57610100808354040283529160200191610777565b820191906000526020600020905b81548152906001019060200180831161075a57829003601f168201915b50505050508152602001600282015481526020016003820154815260200160048201548152602001600582015481526020016006820160009054906101000a90046001600160a01b03166001600160a01b03166001600160a01b031681526020016006820160149054906101000a900460ff161515151581526020016007820154815250509050806000015181602001518260400151836060015184608001518560a001518660c001518760e0015188610100015199509950995099509950995099509950995050909192939495969798565b6108526112c9565b60075442116108995760405162461bcd60e51b8152602060048201526013602482015272111958591b1a5b99481b9bdd081c185cdcd959606a1b604482015260640161036a565b600454600554106108db5760405162461bcd60e51b815260206004820152600c60248201526b11dbd85b081dd85cc81b595d60a21b604482015260640161036a565b336000908152600b60205260409020546109295760405162461bcd60e51b815260206004820152600f60248201526e27379031b7b73a3934b13aba34b7b760891b604482015260640161036a565b336000818152600b602052604081208054919055600e549091610956916001600160a01b031690836112f3565b60405181815233907f358fe4192934d3bf28ae181feda1f4bd08ca67f5e2fad55582cce5eb67304ae99060200160405180910390a25061063d60018055565b61099d6112c9565b6007544211156109e05760405162461bcd60e51b815260206004820152600e60248201526d10d85b5c185a59db88195b99195960921b604482015260640161036a565b600854600160a01b900460ff16610a2f5760405162461bcd60e51b815260206004820152601360248201527243616d706169676e206e6f742061637469766560681b604482015260640161036a565b60008111610a745760405162461bcd60e51b81526020600482015260126024820152710416d6f756e74206d757374206265203e20360741b604482015260640161036a565b600e54610a8c906001600160a01b0316333084611352565b336000908152600d602052604090205460ff16610b0057336000818152600d60205260408120805460ff19166001908117909155600c805491820181559091527fdf6966c971051c3d54ec59162606531493a51404a002842f56009d7e5cf4a8c70180546001600160a01b03191690911790555b336000908152600b602052604081208054839290610b1f908490611866565b909155505060058054829190600090610b39908490611866565b909155505060045460055410610b57576008805460ff60a01b191690555b60405181815233907f6770260ea820d2f539364e7617e021543aaf6d192f2fd2a47c20db6bd99a4eb99060200160405180910390a2610b9560018055565b50565b600280548190610ba7906116f3565b80601f0160208091040260200160405190810160405280929190818152602001828054610bd3906116f3565b8015610c205780601f10610bf557610100808354040283529160200191610c20565b820191906000526020600020905b815481529060010190602001808311610c0357829003601f168201915b505050505090806001018054610c35906116f3565b80601f0160208091040260200160405190810160405280929190818152602001828054610c61906116f3565b8015610cae5780601f10610c8357610100808354040283529160200191610cae565b820191906000526020600020905b815481529060010190602001808311610c9157829003601f168201915b505050506002830154600384015460048501546005860154600687015460079097015495969395929450909290916001600160a01b03821691600160a01b900460ff169089565b610cfd611042565b60008211610d425760405162461bcd60e51b81526020600482015260126024820152710416d6f756e74206d757374206265203e20360741b604482015260640161036a565b428111610d915760405162461bcd60e51b815260206004820152601a60248201527f446561646c696e65206d75737420626520696e20667574757265000000000000604482015260640161036a565b6009546040805160e08101825285815260208101859052908101839052606081016000815260006020808301829052604080518083018252838152818501526060909301829052848252600a90522081518190610dee908261177d565b50602082015181600101556040820151816002015560608201518160030160006101000a81548160ff02191690836003811115610e2d57610e2d61166b565b02179055506080820151600482015560a08201516005820190610e50908261177d565b5060c091909101516006909101805460ff191691151591909117905560098054906000610e7c83611879565b919050555050505050565b600a60205260009081526040902080548190610ea2906116f3565b80601f0160208091040260200160405190810160405280929190818152602001828054610ece906116f3565b8015610f1b5780601f10610ef057610100808354040283529160200191610f1b565b820191906000526020600020905b815481529060010190602001808311610efe57829003601f168201915b50505060018401546002850154600386015460048701546005880180549798949793965060ff90921694509291610f51906116f3565b80601f0160208091040260200160405190810160405280929190818152602001828054610f7d906116f3565b8015610fca5780601f10610f9f57610100808354040283529160200191610fca565b820191906000526020600020905b815481529060010190602001808311610fad57829003601f168201915b5050506006909301549192505060ff1687565b600c8181548110610fed57600080fd5b6000918252602090912001546001600160a01b0316905081565b61100f611042565b6001600160a01b03811661103957604051631e4fbdf760e01b81526000600482015260240161036a565b610b9581611279565b6000546001600160a01b0316331461063d5760405163118cdaa760e01b815233600482015260240161036a565b600f546000906001600160a01b03838116911614801561109757506001600160a01b03821615155b92915050565b6000818152600a60205260409020600160038083015460ff16908111156110c6576110c661166b565b146111135760405162461bcd60e51b815260206004820152601860248201527f496e76616c696420737461746520666f72207061796f75740000000000000000604482015260640161036a565b6001810154600e546040516370a0823160e01b81523060048201526001600160a01b03909116906370a0823190602401602060405180830381865afa158015611160573d6000803e3d6000fd5b505050506040513d601f19601f820116820180604052508101906111849190611892565b10156111d25760405162461bcd60e51b815260206004820152601e60248201527f496e73756666696369656e742066756e647320696e20636f6e74726163740000604482015260640161036a565b60038101805460ff1990811660021790915560068201805490911660019081179091558101546005805460009061120a9084906118ab565b9091555050600054611237906001600160a01b03166001830154600e546001600160a01b031691906112f3565b817f80230996023d69b50793fa73f1919127c9d8e741d3989743c479169f22e7a288826001015460405161126d91815260200190565b60405180910390a25050565b600080546001600160a01b038381166001600160a01b0319831681178455604051919092169283917f8be0079c531659141344cd1fd0a4f28419497f9722a3daafe3b4186f6b6457e09190a35050565b6002600154036112ec57604051633ee5aeb560e01b815260040160405180910390fd5b6002600155565b6040516001600160a01b0383811660248301526044820183905261047a91859182169063a9059cbb906064015b604051602081830303815290604052915060e01b6020820180516001600160e01b038381831617835250505050611391565b6040516001600160a01b03848116602483015283811660448301526064820183905261138b9186918216906323b872dd90608401611320565b50505050565b600080602060008451602086016000885af1806113b4576040513d6000823e3d81fd5b50506000513d915081156113cc5780600114156113d9565b6001600160a01b0384163b155b1561138b57604051635274afe760e01b81526001600160a01b038516600482015260240161036a565b60006020828403121561141457600080fd5b81356001600160a01b038116811461142b57600080fd5b9392505050565b6000806040838503121561144557600080fd5b82359150602083013560ff8116811461145d57600080fd5b809150509250929050565b634e487b7160e01b600052604160045260246000fd5b600082601f83011261148f57600080fd5b813567ffffffffffffffff808211156114aa576114aa611468565b604051601f8301601f19908116603f011681019082821181831017156114d2576114d2611468565b816040528381528660208588010111156114eb57600080fd5b836020870160208301376000602085830101528094505050505092915050565b6000806040838503121561151e57600080fd5b82359150602083013567ffffffffffffffff81111561153c57600080fd5b6115488582860161147e565b9150509250929050565b6000815180845260005b818110156115785760208185018101518683018201520161155c565b506000602082860101526020601f19601f83011685010191505092915050565b60006101208083526115ac8184018d611552565b905082810360208401526115c0818c611552565b604084019a909a5250506060810196909652608086019490945260a08501929092526001600160a01b031660c0840152151560e08301526101009091015292915050565b60006020828403121561161657600080fd5b5035919050565b60008060006060848603121561163257600080fd5b833567ffffffffffffffff81111561164957600080fd5b6116558682870161147e565b9660208601359650604090950135949350505050565b634e487b7160e01b600052602160045260246000fd5b60e08152600061169460e083018a611552565b886020840152876040840152600487106116be57634e487b7160e01b600052602160045260246000fd5b86606084015285608084015282810360a08401526116dc8186611552565b91505082151560c083015298975050505050505050565b600181811c9082168061170757607f821691505b60208210810361172757634e487b7160e01b600052602260045260246000fd5b50919050565b601f82111561047a576000816000526020600020601f850160051c810160208610156117565750805b601f850160051c820191505b8181101561177557828155600101611762565b505050505050565b815167ffffffffffffffff81111561179757611797611468565b6117ab816117a584546116f3565b8461172d565b602080601f8311600181146117e057600084156117c85750858301515b600019600386901b1c1916600185901b178555611775565b600085815260208120601f198616915b8281101561180f578886015182559484019460019091019084016117f0565b508582101561182d5787850151600019600388901b60f8161c191681555b5050505050600190811b01905550565b60208152600061142b6020830184611552565b634e487b7160e01b600052601160045260246000fd5b8082018082111561109757611097611850565b60006001820161188b5761188b611850565b5060010190565b6000602082840312156118a457600080fd5b5051919050565b818103818111156110975761109761185056fea2646970667358221220faafe496f97b93ca68947e37035c55253bf29e227d38205681126e00fc6e402664736f6c63430008180033a2646970667358221220efb003c30d241aa3583587f9ce25143c5445c2567b9cc133d027992f14bfc37364736f6c63430008180033","linkReferences":{}},"methodIdentifiers":{"DEFAULT_AI_HANDLER()":"54d0d48a","PYUSD()":"9e19789d","campaigns(uint256)":"141961bc","createCampaign(string,string,uint256,uint256)":"a318f269","createCampaign(string,string,uint256,uint256,uint256[])":"e022b300","creatorCampaigns(address,uint256)":"ddc8af61","getActiveCampaignsCount()":"b97d57ea","getAllCampaigns()":"86cdf604","getCampaign(uint256)":"5598f8cc","getCampaignCount()":"6caa9218","getCampaignsByCreator(address)":"d5b8d84a","getCampaignsPaginated(uint256,uint256)":"f597c73b"},"id":35}