{"abi":[{"type":"constructor","inputs":[],"stateMutability":"nonpayable"},{"type":"function","name":"AI_VERIFIER_ROLE","inputs":[],"outputs":[{"name":"","type":"bytes32","internalType":"bytes32"}],"stateMutability":"view"},{"type":"function","name":"DEFAULT_ADMIN_ROLE","inputs":[],"outputs":[{"name":"","type":"bytes32","internalType":"bytes32"}],"stateMutability":"view"},{"type":"function","name":"authorizeCampaign","inputs":[{"name":"_campaign","type":"address","internalType":"address"}],"outputs":[],"stateMutability":"nonpayable"},{"type":"function","name":"authorizedCampaigns","inputs":[{"name":"","type":"address","internalType":"address"}],"outputs":[{"name":"","type":"bool","internalType":"bool"}],"stateMutability":"view"},{"type":"function","name":"completeVerification","inputs":[{"name":"_requestId","type":"bytes32","internalType":"bytes32"},{"name":"_approved","type":"bool","internalType":"bool"},{"name":"_aiReportHash","type":"string","internalType":"string"}],"outputs":[],"stateMutability":"nonpayable"},{"type":"function","name":"getPendingRequests","inputs":[{"name":"_startIndex","type":"uint256","internalType":"uint256"},{"name":"_count","type":"uint256","internalType":"uint256"}],"outputs":[{"name":"","type":"bytes32[]","internalType":"bytes32[]"}],"stateMutability":"view"},{"type":"function","name":"getRoleAdmin","inputs":[{"name":"role","type":"bytes32","internalType":"bytes32"}],"outputs":[{"name":"","type":"bytes32","internalType":"bytes32"}],"stateMutability":"view"},{"type":"function","name":"getVerificationRequest","inputs":[{"name":"_requestId","type":"bytes32","internalType":"bytes32"}],"outputs":[{"name":"campaignAddress","type":"address","internalType":"address"},{"name":"milestoneId","type":"uint256","internalType":"uint256"},{"name":"requester","type":"address","internalType":"address"},{"name":"timestamp","type":"uint256","internalType":"uint256"},{"name":"isProcessed","type":"bool","internalType":"bool"},{"name":"isApproved","type":"bool","internalType":"bool"},{"name":"aiReportHash","type":"string","internalType":"string"}],"stateMutability":"view"},{"type":"function","name":"grantAiVerifierRole","inputs":[{"name":"_verifier","type":"address","internalType":"address"}],"outputs":[],"stateMutability":"nonpayable"},{"type":"function","name":"grantRole","inputs":[{"name":"role","type":"bytes32","internalType":"bytes32"},{"name":"account","type":"address","internalType":"address"}],"outputs":[],"stateMutability":"nonpayable"},{"type":"function","name":"hasRole","inputs":[{"name":"role","type":"bytes32","internalType":"bytes32"},{"name":"account","type":"address","internalType":"address"}],"outputs":[{"name":"","type":"bool","internalType":"bool"}],"stateMutability":"view"},{"type":"function","name":"pendingRequests","inputs":[{"name":"","type":"uint256","internalType":"uint256"}],"outputs":[{"name":"","type":"bytes32","internalType":"bytes32"}],"stateMutability":"view"},{"type":"function","name":"renounceRole","inputs":[{"name":"role","type":"bytes32","internalType":"bytes32"},{"name":"callerConfirmation","type":"address","internalType":"address"}],"outputs":[],"stateMutability":"nonpayable"},{"type":"function","name":"requestVerification","inputs":[{"name":"_campaign","type":"address","internalType":"address"},{"name":"_milestoneId","type":"uint256","internalType":"uint256"},{"name":"_evidenceHash","type":"string","internalType":"string"}],"outputs":[{"name":"","type":"bytes32","internalType":"bytes32"}],"stateMutability":"nonpayable"},{"type":"function","name":"revokeRole","inputs":[{"name":"role","type":"bytes32","internalType":"bytes32"},{"name":"account","type":"address","internalType":"address"}],"outputs":[],"stateMutability":"nonpayable"},{"type":"function","name":"supportsInterface","inputs":[{"name":"interfaceId","type":"bytes4","internalType":"bytes4"}],"outputs":[{"name":"","type":"bool","internalType":"bool"}],"stateMutability":"view"},{"type":"function","name":"verificationRequests","inputs":[{"name":"","type":"bytes32","internalType":"bytes32"}],"outputs":[{"name":"campaignAddress","type":"address","internalType":"address"},{"name":"milestoneId","type":"uint256","internalType":"uint256"},{"name":"requester","type":"address","internalType":"address"},{"name":"timestamp","type":"uint256","internalType":"uint256"},{"name":"isProcessed","type":"bool","internalType":"bool"},{"name":"isApproved","type":"bool","internalType":"bool"},{"name":"aiReportHash","type":"string","internalType":"string"}],"stateMutability":"view"},{"type":"event","name":"CampaignAuthorized","inputs":[{"name":"campaign","type":"address","indexed":true,"internalType":"address"}],"anonymous":false},{"type":"event","name":"RoleAdminChanged","inputs":[{"name":"role","type":"bytes32","indexed":true,"internalType":"bytes32"},{"name":"previousAdminRole","type":"bytes32","indexed":true,"internalType":"bytes32"},{"name":"newAdminRole","type":"bytes32","indexed":true,"internalType":"bytes32"}],"anonymous":false},{"type":"event","name":"RoleGranted","inputs":[{"name":"role","type":"bytes32","indexed":true,"internalType":"bytes32"},{"name":"account","type":"address","indexed":true,"internalType":"address"},{"name":"sender","type":"address","indexed":true,"internalType":"address"}],"anonymous":false},{"type":"event","name":"RoleRevoked","inputs":[{"name":"role","type":"bytes32","indexed":true,"internalType":"bytes32"},{"name":"account","type":"address","indexed":true,"internalType":"address"},{"name":"sender","type":"address","indexed":true,"internalType":"address"}],"anonymous":false},{"type":"event","name":"VerificationCompleted","inputs":[{"name":"requestId","type":"bytes32","indexed":true,"internalType":"bytes32"},{"name":"approved","type":"bool","indexed":false,"internalType":"bool"},{"name":"aiReportHash","type":"string","indexed":false,"internalType":"string"}],"anonymous":false},{"type":"event","name":"VerificationRequested","inputs":[{"name":"requestId","type":"bytes32","indexed":true,"internalType":"bytes32"},{"name":"campaign","type":"address","indexed":true,"internalType":"address"},{"name":"milestoneId","type":"uint256","indexed":false,"internalType":"uint256"},{"name":"requester","type":"address","indexed":false,"internalType":"address"}],"anonymous":false},{"type":"error","name":"AccessControlBadConfirmation","inputs":[]},{"type":"error","name":"AccessControlUnauthorizedAccount","inputs":[{"name":"account","type":"address","internalType":"address"},{"name":"neededRole","type":"bytes32","internalType":"bytes32"}]}],"bytecode":{"object":"0x608060405234801561001057600080fd5b5061001c60003361004d565b506100477f04516a438d7a6ea0a767ab73178ff354a6680d6f5121da52d484005ab1ec308b3361004d565b506100f9565b6000828152602081815260408083206001600160a01b038516845290915281205460ff166100ef576000838152602081815260408083206001600160a01b03861684529091529020805460ff191660011790556100a73390565b6001600160a01b0316826001600160a01b0316847f2f8788117e7eff1d82e926ec794901d17c78024a50270940304540a733656f0d60405160405180910390a45060016100f3565b5060005b92915050565b611329806101086000396000f3fe608060405234801561001057600080fd5b506004361061010b5760003560e01c8063697aa09b116100a257806396bfb3211161007157806396bfb32114610259578063a217fddf1461026c578063ae2c4c0314610274578063b820ebeb14610287578063d547741f146102ae57600080fd5b8063697aa09b146101f0578063780c7fb71461021357806379e041f21461022657806391d148541461024657600080fd5b80632f2ff15d116100de5780632f2ff15d146101a457806336568abe146101b75780633c652a9a146101ca5780634beb7d39146101dd57600080fd5b806301ffc9a7146101105780630f3908c81461013857806318a333491461015e578063248a9ca314610173575b600080fd5b61012361011e366004610e06565b6102c1565b60405190151581526020015b60405180910390f35b61014b610146366004610e37565b6102f8565b60405161012f9796959493929190610ea0565b61017161016c366004610f13565b6103d5565b005b610196610181366004610e37565b60009081526020819052604090206001015490565b60405190815260200161012f565b6101716101b2366004610f2e565b61040e565b6101716101c5366004610f2e565b610439565b6101966101d8366004610e37565b610471565b61014b6101eb366004610e37565b610492565b6101236101fe366004610f13565b60026020526000908152604090205460ff1681565b610171610221366004610ffd565b6105e4565b61023961023436600461105b565b61074c565b60405161012f919061107d565b610123610254366004610f2e565b610841565b6101966102673660046110c1565b61086a565b610196600081565b610171610282366004610f13565b610a98565b6101967f04516a438d7a6ea0a767ab73178ff354a6680d6f5121da52d484005ab1ec308b81565b6101716102bc366004610f2e565b610af0565b60006001600160e01b03198216637965db0b60e01b14806102f257506301ffc9a760e01b6001600160e01b03198316145b92915050565b60016020819052600091825260409091208054918101546002820154600383015460048401546005850180546001600160a01b039788169795969590941694929360ff808416946101009094041692919061035290611102565b80601f016020809104026020016040519081016040528092919081815260200182805461037e90611102565b80156103cb5780601f106103a0576101008083540402835291602001916103cb565b820191906000526020600020905b8154815290600101906020018083116103ae57829003601f168201915b5050505050905087565b60006103e081610b15565b61040a7f04516a438d7a6ea0a767ab73178ff354a6680d6f5121da52d484005ab1ec308b8361040e565b5050565b60008281526020819052604090206001015461042981610b15565b6104338383610b22565b50505050565b6001600160a01b03811633146104625760405163334bd91960e11b815260040160405180910390fd5b61046c8282610bb4565b505050565b6003818154811061048157600080fd5b600091825260209091200154905081565b6000818152600160208181526040808420815160e08101835281546001600160a01b03908116825294820154938101939093526002810154909316908201526003820154606082810191909152600483015460ff8082161515608085015261010090910416151560a0830152600583018054859485948594859485949193859392909160c084019161052390611102565b80601f016020809104026020016040519081016040528092919081815260200182805461054f90611102565b801561059c5780601f106105715761010080835404028352916020019161059c565b820191906000526020600020905b81548152906001019060200180831161057f57829003601f168201915b5050505050815250509050806000015181602001518260400151836060015184608001518560a001518660c00151975097509750975097509750975050919395979092949650565b7f04516a438d7a6ea0a767ab73178ff354a6680d6f5121da52d484005ab1ec308b61060e81610b15565b6000848152600160205260409020600481015460ff16156106765760405162461bcd60e51b815260206004820152601960248201527f5265717565737420616c72656164792070726f6365737365640000000000000060448201526064015b60405180910390fd5b60008160030154116106be5760405162461bcd60e51b815260206004820152601160248201527014995c5d595cdd081b9bdd08199bdd5b99607a1b604482015260640161066d565b6004810180548515156101000261ffff19909116176001179055600581016106e6848261118c565b506106f085610c1f565b847f5b5b2e0e6d91b3530f76e5d643dbc08804627496f87d19a6562555fd4eed0342858560405161072292919061124c565b60405180910390a280546001820154610745916001600160a01b03169086610ccd565b5050505050565b600354606090831061076d57506040805160008152602081019091526102f2565b60006107798385611285565b60035490915081111561078b57506003545b60006107978583611298565b905060008167ffffffffffffffff8111156107b4576107b4610f5a565b6040519080825280602002602001820160405280156107dd578160200160208202803683370190505b50905060005b828110156108375760036107f78289611285565b81548110610807576108076112ab565b9060005260206000200154828281518110610824576108246112ab565b60209081029190910101526001016107e3565b5095945050505050565b6000918252602082815260408084206001600160a01b0393909316845291905290205460ff1690565b6001600160a01b03831660009081526002602052604081205460ff166108d25760405162461bcd60e51b815260206004820152601760248201527f43616d706169676e206e6f7420617574686f72697a6564000000000000000000604482015260640161066d565b604080518581526020808201869052338284015242606083015260809091206000818152600190925291902060030154156109485760405162461bcd60e51b81526020600482015260166024820152755265717565737420616c72656164792065786973747360501b604482015260640161066d565b6040805160e0810182526001600160a01b038088168252602080830188815233848601908152426060860190815260006080870181815260a0880182815260c089018d81528b845260019788905299909220885181549089166001600160a01b0319918216178255955196810196909655925160028601805491909716941693909317909455925160038301559151600482018054935115156101000261ff00199215159290921661ffff19909416939093171790915591519091906005820190610a13908261118c565b5050600380546001810182556000919091527fc2575a0e9e593c00f959f8c92f12db2869c3395a3b0502d05e2516446f71f85b0182905550604080518581523360208201526001600160a01b0387169183917f63e1166582d5a8062fb426458f132bfd6e77a4835b554402082395cfaecf6187910160405180910390a3949350505050565b6000610aa381610b15565b6001600160a01b038216600081815260026020526040808220805460ff19166001179055517fc9a41551ccecda73da8a876c4e10c79db8a4f8ce88487caf117bcda3338a48549190a25050565b600082815260208190526040902060010154610b0b81610b15565b6104338383610bb4565b610b1f8133610dcd565b50565b6000610b2e8383610841565b610bac576000838152602081815260408083206001600160a01b03861684529091529020805460ff19166001179055610b643390565b6001600160a01b0316826001600160a01b0316847f2f8788117e7eff1d82e926ec794901d17c78024a50270940304540a733656f0d60405160405180910390a45060016102f2565b5060006102f2565b6000610bc08383610841565b15610bac576000838152602081815260408083206001600160a01b0386168085529252808320805460ff1916905551339286917ff6391f5c32d9c69d2a47ea670b442974b53935d1edc7fd64eb21e047a839171b9190a45060016102f2565b60005b60035481101561040a578160038281548110610c4057610c406112ab565b906000526020600020015403610cc55760038054610c6090600190611298565b81548110610c7057610c706112ab565b906000526020600020015460038281548110610c8e57610c8e6112ab565b6000918252602090912001556003805480610cab57610cab6112c1565b600190038181906000526020600020016000905590555050565b600101610c22565b600081610cdb576000610cde565b60015b6040516024810185905260ff821660448201529091506000906001600160a01b0386169060640160408051601f198184030181529181526020820180516001600160e01b0316632fb37fef60e01b17905251610d3a91906112d7565b6000604051808303816000865af19150503d8060008114610d77576040519150601f19603f3d011682016040523d82523d6000602084013e610d7c565b606091505b50509050806107455760405162461bcd60e51b815260206004820152601c60248201527f43616d706169676e206e6f74696669636174696f6e206661696c656400000000604482015260640161066d565b610dd78282610841565b61040a5760405163e2517d3f60e01b81526001600160a01b03821660048201526024810183905260440161066d565b600060208284031215610e1857600080fd5b81356001600160e01b031981168114610e3057600080fd5b9392505050565b600060208284031215610e4957600080fd5b5035919050565b60005b83811015610e6b578181015183820152602001610e53565b50506000910152565b60008151808452610e8c816020860160208601610e50565b601f01601f19169290920160200192915050565b6001600160a01b038881168252602082018890528616604082015260608101859052831515608082015282151560a082015260e060c08201819052600090610eea90830184610e74565b9998505050505050505050565b80356001600160a01b0381168114610f0e57600080fd5b919050565b600060208284031215610f2557600080fd5b610e3082610ef7565b60008060408385031215610f4157600080fd5b82359150610f5160208401610ef7565b90509250929050565b634e487b7160e01b600052604160045260246000fd5b600082601f830112610f8157600080fd5b813567ffffffffffffffff80821115610f9c57610f9c610f5a565b604051601f8301601f19908116603f01168101908282118183101715610fc457610fc4610f5a565b81604052838152866020858801011115610fdd57600080fd5b836020870160208301376000602085830101528094505050505092915050565b60008060006060848603121561101257600080fd5b833592506020840135801515811461102957600080fd5b9150604084013567ffffffffffffffff81111561104557600080fd5b61105186828701610f70565b9150509250925092565b6000806040838503121561106e57600080fd5b50508035926020909101359150565b6020808252825182820181905260009190848201906040850190845b818110156110b557835183529284019291840191600101611099565b50909695505050505050565b6000806000606084860312156110d657600080fd5b6110df84610ef7565b925060208401359150604084013567ffffffffffffffff81111561104557600080fd5b600181811c9082168061111657607f821691505b60208210810361113657634e487b7160e01b600052602260045260246000fd5b50919050565b601f82111561046c576000816000526020600020601f850160051c810160208610156111655750805b601f850160051c820191505b8181101561118457828155600101611171565b505050505050565b815167ffffffffffffffff8111156111a6576111a6610f5a565b6111ba816111b48454611102565b8461113c565b602080601f8311600181146111ef57600084156111d75750858301515b600019600386901b1c1916600185901b178555611184565b600085815260208120601f198616915b8281101561121e578886015182559484019460019091019084016111ff565b508582101561123c5787850151600019600388901b60f8161c191681555b5050505050600190811b01905550565b82151581526040602082015260006112676040830184610e74565b949350505050565b634e487b7160e01b600052601160045260246000fd5b808201808211156102f2576102f261126f565b818103818111156102f2576102f261126f565b634e487b7160e01b600052603260045260246000fd5b634e487b7160e01b600052603160045260246000fd5b600082516112e9818460208701610e50565b919091019291505056fea264697066735822122096b7a94932aa94d0545e6e25cb1c39c221eea46ad063d864337de6634efe9a1264736f6c63430008180033","linkReferences":{}},"methodIdentifiers":{"AI_VERIFIER_ROLE()":"b820ebeb","DEFAULT_ADMIN_ROLE()":"a217fddf","authorizeCampaign(address)":"ae2c4c03","authorizedCampaigns(address)":"697aa09b","completeVerification(bytes32,bool,string)":"780c7fb7","getPendingRequests(uint256,uint256)":"79e041f2","getRoleAdmin(bytes32)":"248a9ca3","getVerificationRequest(bytes32)":"4beb7d39","grantAiVerifierRole(address)":"18a33349","grantRole(bytes32,address)":"2f2ff15d","hasRole(bytes32,address)":"91d14854","pendingRequests(uint256)":"3c652a9a","renounceRole(bytes32,address)":"36568abe","requestVerification(address,uint256,string)":"96bfb321","revokeRole(bytes32,address)":"d547741f","supportsInterface(bytes4)":"01ffc9a7","verificationRequests(bytes32)":"0f3908c8"},"id":34}