{"abi":[{"type":"constructor","inputs":[{"name":"_title","type":"string","internalType":"string"},{"name":"_description","type":"string","internalType":"string"},{"name":"_totalGoal","type":"uint256","internalType":"uint256"},{"name":"_duration","type":"uint256","internalType":"uint256"},{"name":"_pyusd","type":"address","internalType":"address"},{"name":"_creator","type":"address","internalType":"address"},{"name":"_milestoneAmounts","type":"uint256[]","internalType":"uint256[]"}],"stateMutability":"nonpayable"},{"type":"function","name":"addMilestone","inputs":[{"name":"_description","type":"string","internalType":"string"},{"name":"_amount","type":"uint256","internalType":"uint256"},{"name":"_deadline","type":"uint256","internalType":"uint256"}],"outputs":[],"stateMutability":"nonpayable"},{"type":"function","name":"backers","inputs":[{"name":"","type":"uint256","internalType":"uint256"}],"outputs":[{"name":"","type":"address","internalType":"address"}],"stateMutability":"view"},{"type":"function","name":"backersCount","inputs":[],"outputs":[{"name":"","type":"uint256","internalType":"uint256"}],"stateMutability":"view"},{"type":"function","name":"campaignInfo","inputs":[],"outputs":[{"name":"title","type":"string","internalType":"string"},{"name":"description","type":"string","internalType":"string"},{"name":"totalGoal","type":"uint256","internalType":"uint256"},{"name":"totalRaised","type":"uint256","internalType":"uint256"},{"name":"startTime","type":"uint256","internalType":"uint256"},{"name":"endTime","type":"uint256","internalType":"uint256"},{"name":"creator","type":"address","internalType":"address"},{"name":"isActive","type":"bool","internalType":"bool"},{"name":"milestoneCount","type":"uint256","internalType":"uint256"}],"stateMutability":"view"},{"type":"function","name":"claimRefund","inputs":[],"outputs":[],"stateMutability":"nonpayable"},{"type":"function","name":"contribute","inputs":[{"name":"_amount","type":"uint256","internalType":"uint256"}],"outputs":[],"stateMutability":"nonpayable"},{"type":"function","name":"contributions","inputs":[{"name":"","type":"address","internalType":"address"}],"outputs":[{"name":"","type":"uint256","internalType":"uint256"}],"stateMutability":"view"},{"type":"function","name":"finalizeVoting","inputs":[{"name":"_milestoneId","type":"uint256","internalType":"uint256"}],"outputs":[],"stateMutability":"nonpayable"},{"type":"function","name":"getCampaignSummary","inputs":[],"outputs":[{"name":"title","type":"string","internalType":"string"},{"name":"description","type":"string","internalType":"string"},{"name":"totalGoal","type":"uint256","internalType":"uint256"},{"name":"totalRaised","type":"uint256","internalType":"uint256"},{"name":"startTime","type":"uint256","internalType":"uint256"},{"name":"endTime","type":"uint256","internalType":"uint256"},{"name":"creator","type":"address","internalType":"address"},{"name":"isActive","type":"bool","internalType":"bool"},{"name":"milestoneCount","type":"uint256","internalType":"uint256"}],"stateMutability":"view"},{"type":"function","name":"hasVoted","inputs":[{"name":"","type":"uint256","internalType":"uint256"},{"name":"","type":"address","internalType":"address"}],"outputs":[{"name":"","type":"bool","internalType":"bool"}],"stateMutability":"view"},{"type":"function","name":"isBacker","inputs":[{"name":"","type":"address","internalType":"address"}],"outputs":[{"name":"","type":"bool","internalType":"bool"}],"stateMutability":"view"},{"type":"function","name":"milestones","inputs":[{"name":"","type":"uint256","internalType":"uint256"}],"outputs":[{"name":"description","type":"string","internalType":"string"},{"name":"amount","type":"uint256","internalType":"uint256"},{"name":"deadline","type":"uint256","internalType":"uint256"},{"name":"state","type":"uint8","internalType":"enum AICrowdfundingCampaign.MilestoneState"},{"name":"submittedAt","type":"uint256","internalType":"uint256"},{"name":"votingEnd","type":"uint256","internalType":"uint256"},{"name":"yesVotes","type":"uint256","internalType":"uint256"},{"name":"noVotes","type":"uint256","internalType":"uint256"},{"name":"aiReviewHash","type":"string","internalType":"string"},{"name":"fundsReleased","type":"bool","internalType":"bool"}],"stateMutability":"view"},{"type":"function","name":"onAiVerdict","inputs":[{"name":"_milestoneId","type":"uint256","internalType":"uint256"},{"name":"_verdict","type":"uint8","internalType":"uint8"}],"outputs":[],"stateMutability":"nonpayable"},{"type":"function","name":"owner","inputs":[],"outputs":[{"name":"","type":"address","internalType":"address"}],"stateMutability":"view"},{"type":"function","name":"pyusd","inputs":[],"outputs":[{"name":"","type":"address","internalType":"contract IERC20"}],"stateMutability":"view"},{"type":"function","name":"renounceOwnership","inputs":[],"outputs":[],"stateMutability":"nonpayable"},{"type":"function","name":"submitMilestone","inputs":[{"name":"_milestoneId","type":"uint256","internalType":"uint256"},{"name":"_reviewHash","type":"string","internalType":"string"}],"outputs":[],"stateMutability":"nonpayable"},{"type":"function","name":"transferOwnership","inputs":[{"name":"newOwner","type":"address","internalType":"address"}],"outputs":[],"stateMutability":"nonpayable"},{"type":"function","name":"voteOnMilestone","inputs":[{"name":"_milestoneId","type":"uint256","internalType":"uint256"},{"name":"_support","type":"bool","internalType":"bool"}],"outputs":[],"stateMutability":"nonpayable"},{"type":"function","name":"votingPeriod","inputs":[],"outputs":[{"name":"","type":"uint256","internalType":"uint256"}],"stateMutability":"view"},{"type":"event","name":"ContributionMade","inputs":[{"name":"contributor","type":"address","indexed":true,"internalType":"address"},{"name":"amount","type":"uint256","indexed":false,"internalType":"uint256"}],"anonymous":false},{"type":"event","name":"FundsReleased","inputs":[{"name":"milestoneId","type":"uint256","indexed":true,"internalType":"uint256"},{"name":"amount","type":"uint256","indexed":false,"internalType":"uint256"}],"anonymous":false},{"type":"event","name":"MilestoneSubmitted","inputs":[{"name":"milestoneId","type":"uint256","indexed":true,"internalType":"uint256"},{"name":"reviewHash","type":"string","indexed":false,"internalType":"string"}],"anonymous":false},{"type":"event","name":"MilestoneVerified","inputs":[{"name":"milestoneId","type":"uint256","indexed":true,"internalType":"uint256"},{"name":"verdict","type":"uint8","indexed":false,"internalType":"uint8"}],"anonymous":false},{"type":"event","name":"OwnershipTransferred","inputs":[{"name":"previousOwner","type":"address","indexed":true,"internalType":"address"},{"name":"newOwner","type":"address","indexed":true,"internalType":"address"}],"anonymous":false},{"type":"event","name":"RefundClaimed","inputs":[{"name":"backer","type":"address","indexed":true,"internalType":"address"},{"name":"amount","type":"uint256","indexed":false,"internalType":"uint256"}],"anonymous":false},{"type":"event","name":"VoteCast","inputs":[{"name":"voter","type":"address","indexed":true,"internalType":"address"},{"name":"milestoneId","type":"uint256","indexed":true,"internalType":"uint256"},{"name":"support","type":"bool","indexed":false,"internalType":"bool"}],"anonymous":false},{"type":"event","name":"VotingFinalized","inputs":[{"name":"milestoneId","type":"uint256","indexed":true,"internalType":"uint256"},{"name":"approved","type":"bool","indexed":false,"internalType":"bool"}],"anonymous":false},{"type":"error","name":"OwnableInvalidOwner","inputs":[{"name":"owner","type":"address","internalType":"address"}]},{"type":"error","name":"OwnableUnauthorizedAccount","inputs":[{"name":"account","type":"address","internalType":"address"}]},{"type":"error","name":"ReentrancyGuardReentrantCall","inputs":[]},{"type":"error","name":"SafeERC20FailedOperation","inputs":[{"name":"token","type":"address","internalType":"address"}]}],"bytecode":{"object":"0x60806040526203f4806010553480156200001857600080fd5b506040516200261d3803806200261d8339810160408190526200003b9162000601565b816001600160a01b0381166200006c57604051631e4fbdf760e01b8152600060048201526024015b60405180910390fd5b6200007781620004be565b506001805584620000be5760405162461bcd60e51b815260206004820152601060248201526f0476f616c206d757374206265203e20360841b604482015260640162000063565b60008411620001105760405162461bcd60e51b815260206004820152601460248201527f4475726174696f6e206d757374206265203e2030000000000000000000000000604482015260640162000063565b6001600160a01b038316620001575760405162461bcd60e51b815260206004820152600c60248201526b5a65726f206164647265737360a01b604482015260640162000063565b60405180610120016040528088815260200187815260200186815260200160008152602001428152602001854262000190919062000737565b81526001600160a01b038416602082015260016040820152600060609091015280516002908190620001c39082620007f0565b5060208201516001820190620001da9082620007f0565b5060408201516002820155606082015160038201556080820151600482015560a0820151600582015560c082015160068201805460e08501511515600160a01b026001600160a81b03199091166001600160a01b039384161717905561010090920151600790910155600f80549185166001600160a01b0319929092169190911790556000805b825181101562000459576000838281518110620002825762000282620008bc565b602002602001015111620002ce5760405162461bcd60e51b815260206004820152601260248201527104d696c6573746f6e65206d757374203e20360741b604482015260640162000063565b604051806101400160405280604051806020016040528060008152508152602001848381518110620003045762000304620008bc565b6020026020010151815260200160008152602001600060048111156200032e576200032e620008d2565b815260006020808301829052604080840183905260608401839052608084018390528051808301825283815260a085015260c0909301829052848252600a905220815181906200037f9082620007f0565b50602082015181600101556040820151816002015560608201518160030160006101000a81548160ff02191690836004811115620003c157620003c1620008d2565b02179055506080820151600482015560a0820151600582015560c0820151600682015560e082015160078201556101008201516008820190620004059082620007f0565b5061012091909101516009909101805460ff19169115159190911790558251839082908110620004395762000439620008bc565b6020026020010151826200044e919062000737565b915060010162000261565b5085811115620004ac5760405162461bcd60e51b815260206004820152601660248201527f4d696c6573746f6e65732065786365656420676f616c00000000000000000000604482015260640162000063565b505160095550620008e8945050505050565b600080546001600160a01b038381166001600160a01b0319831681178455604051919092169283917f8be0079c531659141344cd1fd0a4f28419497f9722a3daafe3b4186f6b6457e09190a35050565b634e487b7160e01b600052604160045260246000fd5b604051601f8201601f191681016001600160401b03811182821017156200054f576200054f6200050e565b604052919050565b600082601f8301126200056957600080fd5b81516001600160401b038111156200058557620005856200050e565b60206200059b601f8301601f1916820162000524565b8281528582848701011115620005b057600080fd5b60005b83811015620005d0578581018301518282018401528201620005b3565b506000928101909101919091529392505050565b80516001600160a01b0381168114620005fc57600080fd5b919050565b600080600080600080600060e0888a0312156200061d57600080fd5b87516001600160401b03808211156200063557600080fd5b620006438b838c0162000557565b985060209150818a0151818111156200065b57600080fd5b620006698c828d0162000557565b98505060408a0151965060608a015195506200068860808b01620005e4565b94506200069860a08b01620005e4565b935060c08a015181811115620006ad57600080fd5b8a01601f81018c13620006bf57600080fd5b805182811115620006d457620006d46200050e565b8060051b9250620006e784840162000524565b818152928201840192848101908e8511156200070257600080fd5b928501925b84841015620007225783518252928501929085019062000707565b80965050505050505092959891949750929550565b808201808211156200075957634e487b7160e01b600052601160045260246000fd5b92915050565b600181811c908216806200077457607f821691505b6020821081036200079557634e487b7160e01b600052602260045260246000fd5b50919050565b601f821115620007eb576000816000526020600020601f850160051c81016020861015620007c65750805b601f850160051c820191505b81811015620007e757828155600101620007d2565b5050505b505050565b81516001600160401b038111156200080c576200080c6200050e565b62000824816200081d84546200075f565b846200079b565b602080601f8311600181146200085c5760008415620008435750858301515b600019600386901b1c1916600185901b178555620007e7565b600085815260208120601f198616915b828110156200088d578886015182559484019460019091019084016200086c565b5085821015620008ac5787850151600019600388901b60f8161c191681555b5050505050600190811b01905550565b634e487b7160e01b600052603260045260246000fd5b634e487b7160e01b600052602160045260246000fd5b611d2580620008f86000396000f3fe608060405234801561001057600080fd5b506004361061012c5760003560e01c80638da5cb5b116100ad578063c3c3105611610071578063c3c3105614610295578063e5b5ab39146102a8578063e89e4ed6146102bb578063e9d80020146102e4578063f2fde38b146102f757600080fd5b80638da5cb5b14610244578063a00c96d714610255578063b5545a3c14610272578063c1cbbca71461027a578063c2ea6a7f1461028d57600080fd5b806343859632116100f457806343859632146101b5578063476a119b146101f35780634944483114610206578063715018a614610219578063746fcab71461022157600080fd5b806302a251a3146101315780631d565e781461014d57806322e669d3146101555780632fb37fef1461018057806342e94c9014610195575b600080fd5b61013a60105481565b6040519081526020015b60405180910390f35b600d5461013a565b600f54610168906001600160a01b031681565b6040516001600160a01b039091168152602001610144565b61019361018e366004611784565b61030a565b005b61013a6101a33660046117d6565b600b6020526000908152604090205481565b6101e36101c33660046117f8565b600c60209081526000928352604080842090915290825290205460ff1681565b6040519015158152602001610144565b6101936102013660046118c7565b6104d7565b61019361021436600461190e565b6105fb565b61019361074c565b6101e361022f3660046117d6565b600e6020526000908152604090205460ff1681565b6000546001600160a01b0316610168565b61025d610760565b6040516101449998979695949392919061196d565b61019361096b565b61019361028836600461190e565b610ab6565b61025d610cb6565b6101936102a33660046119d9565b610e13565b6101936102b6366004611a27565b610fd9565b6102ce6102c936600461190e565b6111f4565b6040516101449a99989796959493929190611a67565b6101686102f236600461190e565b611360565b6101936103053660046117d6565b61138a565b6000546001600160a01b0316331480610321575060015b6103675760405162461bcd60e51b815260206004820152601260248201527127b7363c9020a49037b91031b932b0ba37b960711b60448201526064015b60405180910390fd5b60095482106103885760405162461bcd60e51b815260040161035e90611af3565b6000828152600a602052604090206001600382015460ff1660048111156103b1576103b1611a51565b146103fe5760405162461bcd60e51b815260206004820152601760248201527f4d696c6573746f6e65206e6f74207375626d6974746564000000000000000000604482015260640161035e565b60405160ff8316815283907fe90edf17af9e0faec80c6ac87ec2e813590ce6acc79b6d254bc0d5d2dbb81a179060200160405180910390a28160ff1660010361044f5761044a836113c5565b505050565b8160ff1660000361046c57600301805460ff191660041790555050565b8160ff1660020361049d5760038101805460ff191660021790556010546104939042611b34565b6005820155505050565b60405162461bcd60e51b815260206004820152600f60248201526e125b9d985b1a59081d995c991a58dd608a1b604482015260640161035e565b6104df6115ce565b60095482106105005760405162461bcd60e51b815260040161035e90611af3565b6000828152600a6020526040812090600382015460ff16600481111561052857610528611a51565b148061054c57506004600382015460ff16600481111561054a5761054a611a51565b145b6105985760405162461bcd60e51b815260206004820152601c60248201527f496e76616c696420737461746520666f72207375626d697373696f6e00000000604482015260640161035e565b600881016105a68382611bd7565b5060038101805460ff1916600117905542600482015560405183907f6c4ed5f8d6ddf265b243b3e007707e3374049d833dfc7791c66c06579aa10ff9906105ee908590611c97565b60405180910390a2505050565b6106036115fb565b60095481106106245760405162461bcd60e51b815260040161035e90611af3565b6000818152600a602052604090206002600382015460ff16600481111561064d5761064d611a51565b1461068a5760405162461bcd60e51b815260206004820152600d60248201526c4e6f7420696e20766f74696e6760981b604482015260640161035e565b806005015442116106d35760405162461bcd60e51b8152602060048201526013602482015272566f74696e67207374696c6c2061637469766560681b604482015260640161035e565b600781015460068201541180156106f2576106ed836113c5565b610702565b60038201805460ff191660041790555b827f1eb243a7d2a8ecc13e1aeb2386103115f3b895105495dc9cf671767c1cf73d0682604051610736911515815260200190565b60405180910390a2505061074960018055565b50565b6107546115ce565b61075e6000611625565b565b60608060008060008060008060008060026040518061012001604052908160008201805461078d90611b4d565b80601f01602080910402602001604051908101604052809291908181526020018280546107b990611b4d565b80156108065780601f106107db57610100808354040283529160200191610806565b820191906000526020600020905b8154815290600101906020018083116107e957829003601f168201915b5050505050815260200160018201805461081f90611b4d565b80601f016020809104026020016040519081016040528092919081815260200182805461084b90611b4d565b80156108985780601f1061086d57610100808354040283529160200191610898565b820191906000526020600020905b81548152906001019060200180831161087b57829003601f168201915b50505050508152602001600282015481526020016003820154815260200160048201548152602001600582015481526020016006820160009054906101000a90046001600160a01b03166001600160a01b03166001600160a01b031681526020016006820160149054906101000a900460ff161515151581526020016007820154815250509050806000015181602001518260400151836060015184608001518560a001518660c001518760e0015188610100015199509950995099509950995099509950995050909192939495969798565b6109736115fb565b60075442116109ba5760405162461bcd60e51b8152602060048201526013602482015272111958591b1a5b99481b9bdd081c185cdcd959606a1b604482015260640161035e565b600454600554106109fc5760405162461bcd60e51b815260206004820152600c60248201526b11dbd85b081dd85cc81b595d60a21b604482015260640161035e565b336000908152600b6020526040902054610a4a5760405162461bcd60e51b815260206004820152600f60248201526e27379031b7b73a3934b13aba34b7b760891b604482015260640161035e565b336000818152600b602052604081208054919055600f549091610a77916001600160a01b03169083611675565b60405181815233907f358fe4192934d3bf28ae181feda1f4bd08ca67f5e2fad55582cce5eb67304ae99060200160405180910390a25061075e60018055565b610abe6115fb565b600754421115610b015760405162461bcd60e51b815260206004820152600e60248201526d10d85b5c185a59db88195b99195960921b604482015260640161035e565b600854600160a01b900460ff16610b505760405162461bcd60e51b815260206004820152601360248201527243616d706169676e206e6f742061637469766560681b604482015260640161035e565b60008111610b955760405162461bcd60e51b81526020600482015260126024820152710416d6f756e74206d757374206265203e20360741b604482015260640161035e565b600f54610bad906001600160a01b03163330846116d4565b336000908152600e602052604090205460ff16610c2157336000818152600e60205260408120805460ff19166001908117909155600d805491820181559091527fd7b6990105719101dabeb77144f2a3385c8033acd3af97e9423a695e81ad1eb50180546001600160a01b03191690911790555b336000908152600b602052604081208054839290610c40908490611b34565b909155505060058054829190600090610c5a908490611b34565b909155505060045460055410610c78576008805460ff60a01b191690555b60405181815233907f6770260ea820d2f539364e7617e021543aaf6d192f2fd2a47c20db6bd99a4eb99060200160405180910390a261074960018055565b600280548190610cc590611b4d565b80601f0160208091040260200160405190810160405280929190818152602001828054610cf190611b4d565b8015610d3e5780601f10610d1357610100808354040283529160200191610d3e565b820191906000526020600020905b815481529060010190602001808311610d2157829003601f168201915b505050505090806001018054610d5390611b4d565b80601f0160208091040260200160405190810160405280929190818152602001828054610d7f90611b4d565b8015610dcc5780601f10610da157610100808354040283529160200191610dcc565b820191906000526020600020905b815481529060010190602001808311610daf57829003601f168201915b505050506002830154600384015460048501546005860154600687015460079097015495969395929450909290916001600160a01b03821691600160a01b900460ff169089565b610e1b6115ce565b60008211610e605760405162461bcd60e51b81526020600482015260126024820152710416d6f756e74206d757374206265203e20360741b604482015260640161035e565b428111610eaf5760405162461bcd60e51b815260206004820152601a60248201527f446561646c696e65206d75737420626520696e20667574757265000000000000604482015260640161035e565b600954604080516101408101825285815260208101859052908101839052606081016000815260006020808301829052604080840183905260608401839052608084018390528051808301825283815260a085015260c0909301829052848252600a90522081518190610f229082611bd7565b50602082015181600101556040820151816002015560608201518160030160006101000a81548160ff02191690836004811115610f6157610f61611a51565b02179055506080820151600482015560a0820151600582015560c0820151600682015560e082015160078201556101008201516008820190610fa39082611bd7565b5061012091909101516009918201805460ff19169115159190911790558054906000610fce83611caa565b919050555050505050565b336000908152600e602052604090205460ff166110265760405162461bcd60e51b815260206004820152600b60248201526a27b7363c903130b1b5b2b960a91b604482015260640161035e565b60095482106110475760405162461bcd60e51b815260040161035e90611af3565b6000828152600a602052604090206002600382015460ff16600481111561107057611070611a51565b146110ad5760405162461bcd60e51b815260206004820152600d60248201526c4e6f7420696e20766f74696e6760981b604482015260640161035e565b80600501544211156110f05760405162461bcd60e51b815260206004820152600c60248201526b159bdd1a5b99c8195b99195960a21b604482015260640161035e565b6000838152600c6020908152604080832033845290915290205460ff161561114a5760405162461bcd60e51b815260206004820152600d60248201526c105b1c9958591e481d9bdd1959609a1b604482015260640161035e565b6000838152600c602090815260408083203384528252808320805460ff19166001179055600b909152902054821561119b57808260060160008282546111909190611b34565b909155506111b59050565b808260070160008282546111af9190611b34565b90915550505b6040518315158152849033907fd356173ae8eeea8691aee4c1be712c314a975a3d43ebc48b08ca54d0dac912289060200160405180910390a350505050565b600a6020526000908152604090208054819061120f90611b4d565b80601f016020809104026020016040519081016040528092919081815260200182805461123b90611b4d565b80156112885780601f1061125d57610100808354040283529160200191611288565b820191906000526020600020905b81548152906001019060200180831161126b57829003601f168201915b5050505050908060010154908060020154908060030160009054906101000a900460ff16908060040154908060050154908060060154908060070154908060080180546112d490611b4d565b80601f016020809104026020016040519081016040528092919081815260200182805461130090611b4d565b801561134d5780601f106113225761010080835404028352916020019161134d565b820191906000526020600020905b81548152906001019060200180831161133057829003601f168201915b5050506009909301549192505060ff168a565b600d818154811061137057600080fd5b6000918252602090912001546001600160a01b0316905081565b6113926115ce565b6001600160a01b0381166113bc57604051631e4fbdf760e01b81526000600482015260240161035e565b61074981611625565b6000818152600a602052604090206001600382015460ff1660048111156113ee576113ee611a51565b148061141257506002600382015460ff16600481111561141057611410611a51565b145b61145e5760405162461bcd60e51b815260206004820152601860248201527f496e76616c696420737461746520666f72207061796f75740000000000000000604482015260640161035e565b6001810154600f546040516370a0823160e01b81523060048201526001600160a01b03909116906370a0823190602401602060405180830381865afa1580156114ab573d6000803e3d6000fd5b505050506040513d601f19601f820116820180604052508101906114cf9190611cc3565b101561151d5760405162461bcd60e51b815260206004820152601e60248201527f496e73756666696369656e742066756e647320696e20636f6e74726163740000604482015260640161035e565b6003818101805460ff191660018302179055506000600580830182905560098301805460ff19166001908117909155830154815490929061155f908490611cdc565b909155505060005461158c906001600160a01b03166001830154600f546001600160a01b03169190611675565b817f80230996023d69b50793fa73f1919127c9d8e741d3989743c479169f22e7a28882600101546040516115c291815260200190565b60405180910390a25050565b6000546001600160a01b0316331461075e5760405163118cdaa760e01b815233600482015260240161035e565b60026001540361161e57604051633ee5aeb560e01b815260040160405180910390fd5b6002600155565b600080546001600160a01b038381166001600160a01b0319831681178455604051919092169283917f8be0079c531659141344cd1fd0a4f28419497f9722a3daafe3b4186f6b6457e09190a35050565b6040516001600160a01b0383811660248301526044820183905261044a91859182169063a9059cbb906064015b604051602081830303815290604052915060e01b6020820180516001600160e01b038381831617835250505050611713565b6040516001600160a01b03848116602483015283811660448301526064820183905261170d9186918216906323b872dd906084016116a2565b50505050565b600080602060008451602086016000885af180611736576040513d6000823e3d81fd5b50506000513d9150811561174e57806001141561175b565b6001600160a01b0384163b155b1561170d57604051635274afe760e01b81526001600160a01b038516600482015260240161035e565b6000806040838503121561179757600080fd5b82359150602083013560ff811681146117af57600080fd5b809150509250929050565b80356001600160a01b03811681146117d157600080fd5b919050565b6000602082840312156117e857600080fd5b6117f1826117ba565b9392505050565b6000806040838503121561180b57600080fd5b8235915061181b602084016117ba565b90509250929050565b634e487b7160e01b600052604160045260246000fd5b600082601f83011261184b57600080fd5b813567ffffffffffffffff8082111561186657611866611824565b604051601f8301601f19908116603f0116810190828211818310171561188e5761188e611824565b816040528381528660208588010111156118a757600080fd5b836020870160208301376000602085830101528094505050505092915050565b600080604083850312156118da57600080fd5b82359150602083013567ffffffffffffffff8111156118f857600080fd5b6119048582860161183a565b9150509250929050565b60006020828403121561192057600080fd5b5035919050565b6000815180845260005b8181101561194d57602081850181015186830182015201611931565b506000602082860101526020601f19601f83011685010191505092915050565b60006101208083526119818184018d611927565b90508281036020840152611995818c611927565b604084019a909a5250506060810196909652608086019490945260a08501929092526001600160a01b031660c0840152151560e08301526101009091015292915050565b6000806000606084860312156119ee57600080fd5b833567ffffffffffffffff811115611a0557600080fd5b611a118682870161183a565b9660208601359650604090950135949350505050565b60008060408385031215611a3a57600080fd5b82359150602083013580151581146117af57600080fd5b634e487b7160e01b600052602160045260246000fd5b6000610140808352611a7b8184018e611927565b90508b60208401528a604084015260058a10611aa757634e487b7160e01b600052602160045260246000fd5b8960608401528860808401528760a08401528660c08401528560e0840152828103610100840152611ad88186611927565b9150508215156101208301529b9a5050505050505050505050565b602080825260119082015270496e76616c6964206d696c6573746f6e6560781b604082015260600190565b634e487b7160e01b600052601160045260246000fd5b80820180821115611b4757611b47611b1e565b92915050565b600181811c90821680611b6157607f821691505b602082108103611b8157634e487b7160e01b600052602260045260246000fd5b50919050565b601f82111561044a576000816000526020600020601f850160051c81016020861015611bb05750805b601f850160051c820191505b81811015611bcf57828155600101611bbc565b505050505050565b815167ffffffffffffffff811115611bf157611bf1611824565b611c0581611bff8454611b4d565b84611b87565b602080601f831160018114611c3a5760008415611c225750858301515b600019600386901b1c1916600185901b178555611bcf565b600085815260208120601f198616915b82811015611c6957888601518255948401946001909101908401611c4a565b5085821015611c875787850151600019600388901b60f8161c191681555b5050505050600190811b01905550565b6020815260006117f16020830184611927565b600060018201611cbc57611cbc611b1e565b5060010190565b600060208284031215611cd557600080fd5b5051919050565b81810381811115611b4757611b47611b1e56fea26469706673582212202916738c6942fbe3fbae22b8a71907ecc1104d70fbcc32f0975dd0ea3142162d64736f6c63430008180033","linkReferences":{}},"methodIdentifiers":{"addMilestone(string,uint256,uint256)":"c3c31056","backers(uint256)":"e9d80020","backersCount()":"1d565e78","campaignInfo()":"c2ea6a7f","claimRefund()":"b5545a3c","contribute(uint256)":"c1cbbca7","contributions(address)":"42e94c90","finalizeVoting(uint256)":"49444831","getCampaignSummary()":"a00c96d7","hasVoted(uint256,address)":"43859632","isBacker(address)":"746fcab7","milestones(uint256)":"e89e4ed6","onAiVerdict(uint256,uint8)":"2fb37fef","owner()":"8da5cb5b","pyusd()":"22e669d3","renounceOwnership()":"715018a6","submitMilestone(uint256,string)":"476a119b","transferOwnership(address)":"f2fde38b","voteOnMilestone(uint256,bool)":"e5b5ab39","votingPeriod()":"02a251a3"},"id":28}