{"abi":[{"type":"constructor","inputs":[{"name":"_title","type":"string","internalType":"string"},{"name":"_description","type":"string","internalType":"string"},{"name":"_totalGoal","type":"uint256","internalType":"uint256"},{"name":"_duration","type":"uint256","internalType":"uint256"},{"name":"_pyusd","type":"address","internalType":"address"},{"name":"_creator","type":"address","internalType":"address"},{"name":"_milestoneAmounts","type":"uint256[]","internalType":"uint256[]"},{"name":"_aiHandler","type":"address","internalType":"address"}],"stateMutability":"nonpayable"},{"type":"function","name":"addMilestone","inputs":[{"name":"_description","type":"string","internalType":"string"},{"name":"_amount","type":"uint256","internalType":"uint256"},{"name":"_deadline","type":"uint256","internalType":"uint256"}],"outputs":[],"stateMutability":"nonpayable"},{"type":"function","name":"aiHandler","inputs":[],"outputs":[{"name":"","type":"address","internalType":"address"}],"stateMutability":"view"},{"type":"function","name":"backers","inputs":[{"name":"","type":"uint256","internalType":"uint256"}],"outputs":[{"name":"","type":"address","internalType":"address"}],"stateMutability":"view"},{"type":"function","name":"backersCount","inputs":[],"outputs":[{"name":"","type":"uint256","internalType":"uint256"}],"stateMutability":"view"},{"type":"function","name":"campaignInfo","inputs":[],"outputs":[{"name":"title","type":"string","internalType":"string"},{"name":"description","type":"string","internalType":"string"},{"name":"totalGoal","type":"uint256","internalType":"uint256"},{"name":"totalRaised","type":"uint256","internalType":"uint256"},{"name":"startTime","type":"uint256","internalType":"uint256"},{"name":"endTime","type":"uint256","internalType":"uint256"},{"name":"creator","type":"address","internalType":"address"},{"name":"isActive","type":"bool","internalType":"bool"},{"name":"milestoneCount","type":"uint256","internalType":"uint256"}],"stateMutability":"view"},{"type":"function","name":"claimRefund","inputs":[],"outputs":[],"stateMutability":"nonpayable"},{"type":"function","name":"contribute","inputs":[{"name":"_amount","type":"uint256","internalType":"uint256"}],"outputs":[],"stateMutability":"nonpayable"},{"type":"function","name":"contributions","inputs":[{"name":"","type":"address","internalType":"address"}],"outputs":[{"name":"","type":"uint256","internalType":"uint256"}],"stateMutability":"view"},{"type":"function","name":"getBackersBatch","inputs":[{"name":"_startIndex","type":"uint256","internalType":"uint256"},{"name":"_count","type":"uint256","internalType":"uint256"}],"outputs":[{"name":"backerAddresses","type":"address[]","internalType":"address[]"},{"name":"contributionAmounts","type":"uint256[]","internalType":"uint256[]"},{"name":"hasMore","type":"bool","internalType":"bool"}],"stateMutability":"view"},{"type":"function","name":"getCampaignSummary","inputs":[],"outputs":[{"name":"title","type":"string","internalType":"string"},{"name":"description","type":"string","internalType":"string"},{"name":"totalGoal","type":"uint256","internalType":"uint256"},{"name":"totalRaised","type":"uint256","internalType":"uint256"},{"name":"startTime","type":"uint256","internalType":"uint256"},{"name":"endTime","type":"uint256","internalType":"uint256"},{"name":"creator","type":"address","internalType":"address"},{"name":"isActive","type":"bool","internalType":"bool"},{"name":"milestoneCount","type":"uint256","internalType":"uint256"}],"stateMutability":"view"},{"type":"function","name":"getContributorSummary","inputs":[],"outputs":[{"name":"totalContributors","type":"uint256","internalType":"uint256"},{"name":"totalAmount","type":"uint256","internalType":"uint256"},{"name":"avgContribution","type":"uint256","internalType":"uint256"},{"name":"lastContributionTime","type":"uint256","internalType":"uint256"}],"stateMutability":"view"},{"type":"function","name":"isBacker","inputs":[{"name":"","type":"address","internalType":"address"}],"outputs":[{"name":"","type":"bool","internalType":"bool"}],"stateMutability":"view"},{"type":"function","name":"milestones","inputs":[{"name":"","type":"uint256","internalType":"uint256"}],"outputs":[{"name":"description","type":"string","internalType":"string"},{"name":"amount","type":"uint256","internalType":"uint256"},{"name":"deadline","type":"uint256","internalType":"uint256"},{"name":"state","type":"uint8","internalType":"enum AICrowdfundingCampaign.MilestoneState"},{"name":"submittedAt","type":"uint256","internalType":"uint256"},{"name":"aiReviewHash","type":"string","internalType":"string"},{"name":"fundsReleased","type":"bool","internalType":"bool"}],"stateMutability":"view"},{"type":"function","name":"onAiVerdict","inputs":[{"name":"_milestoneId","type":"uint256","internalType":"uint256"},{"name":"_verdict","type":"uint8","internalType":"uint8"}],"outputs":[],"stateMutability":"nonpayable"},{"type":"function","name":"owner","inputs":[],"outputs":[{"name":"","type":"address","internalType":"address"}],"stateMutability":"view"},{"type":"function","name":"pyusd","inputs":[],"outputs":[{"name":"","type":"address","internalType":"contract IERC20"}],"stateMutability":"view"},{"type":"function","name":"renounceOwnership","inputs":[],"outputs":[],"stateMutability":"nonpayable"},{"type":"function","name":"setAiHandler","inputs":[{"name":"_newHandler","type":"address","internalType":"address"}],"outputs":[],"stateMutability":"nonpayable"},{"type":"function","name":"submitMilestone","inputs":[{"name":"_milestoneId","type":"uint256","internalType":"uint256"},{"name":"_reviewHash","type":"string","internalType":"string"}],"outputs":[],"stateMutability":"nonpayable"},{"type":"function","name":"transferOwnership","inputs":[{"name":"newOwner","type":"address","internalType":"address"}],"outputs":[],"stateMutability":"nonpayable"},{"type":"event","name":"AiHandlerUpdated","inputs":[{"name":"previousHandler","type":"address","indexed":true,"internalType":"address"},{"name":"newHandler","type":"address","indexed":true,"internalType":"address"}],"anonymous":false},{"type":"event","name":"ContributionMade","inputs":[{"name":"contributor","type":"address","indexed":true,"internalType":"address"},{"name":"amount","type":"uint256","indexed":false,"internalType":"uint256"}],"anonymous":false},{"type":"event","name":"FundsReleased","inputs":[{"name":"milestoneId","type":"uint256","indexed":true,"internalType":"uint256"},{"name":"amount","type":"uint256","indexed":false,"internalType":"uint256"}],"anonymous":false},{"type":"event","name":"MilestoneSubmitted","inputs":[{"name":"milestoneId","type":"uint256","indexed":true,"internalType":"uint256"},{"name":"reviewHash","type":"string","indexed":false,"internalType":"string"}],"anonymous":false},{"type":"event","name":"MilestoneVerified","inputs":[{"name":"milestoneId","type":"uint256","indexed":true,"internalType":"uint256"},{"name":"verdict","type":"uint8","indexed":false,"internalType":"uint8"}],"anonymous":false},{"type":"event","name":"OwnershipTransferred","inputs":[{"name":"previousOwner","type":"address","indexed":true,"internalType":"address"},{"name":"newOwner","type":"address","indexed":true,"internalType":"address"}],"anonymous":false},{"type":"event","name":"RefundClaimed","inputs":[{"name":"backer","type":"address","indexed":true,"internalType":"address"},{"name":"amount","type":"uint256","indexed":false,"internalType":"uint256"}],"anonymous":false},{"type":"error","name":"OwnableInvalidOwner","inputs":[{"name":"owner","type":"address","internalType":"address"}]},{"type":"error","name":"OwnableUnauthorizedAccount","inputs":[{"name":"account","type":"address","internalType":"address"}]},{"type":"error","name":"ReentrancyGuardReentrantCall","inputs":[]},{"type":"error","name":"SafeERC20FailedOperation","inputs":[{"name":"token","type":"address","internalType":"address"}]}],"bytecode":{"object":"0x60806040523480156200001157600080fd5b5060405162002581380380620025818339810160408190526200003491620006a2565b826001600160a01b0381166200006557604051631e4fbdf760e01b8152600060048201526024015b60405180910390fd5b6200007081620004d7565b506001805585620000b75760405162461bcd60e51b815260206004820152601060248201526f0476f616c206d757374206265203e20360841b60448201526064016200005c565b60008511620001095760405162461bcd60e51b815260206004820152601460248201527f4475726174696f6e206d757374206265203e203000000000000000000000000060448201526064016200005c565b6001600160a01b038416620001505760405162461bcd60e51b815260206004820152600c60248201526b5a65726f206164647265737360a01b60448201526064016200005c565b6001600160a01b038316620001975760405162461bcd60e51b815260206004820152600c60248201526b2d32b9379031b932b0ba37b960a11b60448201526064016200005c565b604051806101200160405280898152602001888152602001878152602001600081526020014281526020018642620001d091906200077f565b81526001600160a01b03851660208201526001604082015260006060909101528051600290819062000203908262000838565b50602082015160018201906200021a908262000838565b5060408201516002820155606082015160038201556080820151600482015560a0820151600582015560c082015160068201805460e08501511515600160a01b026001600160a81b03199091166001600160a01b039384161717905561010090920151600790910155600e80548683166001600160a01b031991821617909155600f8054928416929091169190911790556000805b835181101562000471576000848281518110620002d057620002d062000904565b6020026020010151116200031c5760405162461bcd60e51b815260206004820152601260248201527104d696c6573746f6e65206d757374203e20360741b60448201526064016200005c565b6040518060e0016040528060405180602001604052806000815250815260200185838151811062000351576200035162000904565b6020026020010151815260200160008152602001600060038111156200037b576200037b6200091a565b815260006020808301829052604080518083018252838152818501526060909301829052848252600a90522081518190620003b7908262000838565b50602082015181600101556040820151816002015560608201518160030160006101000a81548160ff02191690836003811115620003f957620003f96200091a565b02179055506080820151600482015560a082015160058201906200041e908262000838565b5060c091909101516006909101805460ff1916911515919091179055835184908290811062000451576200045162000904565b6020026020010151826200046691906200077f565b9150600101620002af565b5086811115620004c45760405162461bcd60e51b815260206004820152601660248201527f4d696c6573746f6e65732065786365656420676f616c0000000000000000000060448201526064016200005c565b5050516009555062000930945050505050565b600080546001600160a01b038381166001600160a01b0319831681178455604051919092169283917f8be0079c531659141344cd1fd0a4f28419497f9722a3daafe3b4186f6b6457e09190a35050565b634e487b7160e01b600052604160045260246000fd5b604051601f8201601f191681016001600160401b038111828210171562000568576200056862000527565b604052919050565b600082601f8301126200058257600080fd5b81516001600160401b038111156200059e576200059e62000527565b6020620005b4601f8301601f191682016200053d565b8281528582848701011115620005c957600080fd5b60005b83811015620005e9578581018301518282018401528201620005cc565b506000928101909101919091529392505050565b80516001600160a01b03811681146200061557600080fd5b919050565b600082601f8301126200062c57600080fd5b815160206001600160401b038211156200064a576200064a62000527565b8160051b6200065b8282016200053d565b92835284810182019282810190878511156200067657600080fd5b83870192505b8483101562000697578251825291830191908301906200067c565b979650505050505050565b600080600080600080600080610100898b031215620006c057600080fd5b88516001600160401b0380821115620006d857600080fd5b620006e68c838d0162000570565b995060208b0151915080821115620006fd57600080fd5b6200070b8c838d0162000570565b985060408b0151975060608b015196506200072960808c01620005fd565b95506200073960a08c01620005fd565b945060c08b01519150808211156200075057600080fd5b506200075f8b828c016200061a565b9250506200077060e08a01620005fd565b90509295985092959890939650565b80820180821115620007a157634e487b7160e01b600052601160045260246000fd5b92915050565b600181811c90821680620007bc57607f821691505b602082108103620007dd57634e487b7160e01b600052602260045260246000fd5b50919050565b601f82111562000833576000816000526020600020601f850160051c810160208610156200080e5750805b601f850160051c820191505b818110156200082f578281556001016200081a565b5050505b505050565b81516001600160401b0381111562000854576200085462000527565b6200086c81620008658454620007a7565b84620007e3565b602080601f831160018114620008a457600084156200088b5750858301515b600019600386901b1c1916600185901b1785556200082f565b600085815260208120601f198616915b82811015620008d557888601518255948401946001909101908401620008b4565b5085821015620008f45787850151600019600388901b60f8161c191681555b5050505050600190811b01905550565b634e487b7160e01b600052603260045260246000fd5b634e487b7160e01b600052602160045260246000fd5b611c4180620009406000396000f3fe608060405234801561001057600080fd5b506004361061012c5760003560e01c80638a519f66116100ad578063c2ea6a7f11610071578063c2ea6a7f146102af578063c3c31056146102b7578063e89e4ed6146102ca578063e9d80020146102f0578063f2fde38b1461030357600080fd5b80638a519f66146102445780638da5cb5b14610266578063a00c96d714610277578063b5545a3c14610294578063c1cbbca71461029c57600080fd5b806342e94c90116100f457806342e94c90146101ae578063476a119b146101ce57806364693764146101e1578063715018a614610209578063746fcab71461021157600080fd5b80630878ffe3146101315780631d565e781461014657806322e669d31461015d5780632b37ce8d146101885780632fb37fef1461019b575b600080fd5b61014461013f366004611662565b610316565b005b600c545b6040519081526020015b60405180910390f35b600e54610170906001600160a01b031681565b6040516001600160a01b039091168152602001610154565b600f54610170906001600160a01b031681565b6101446101a9366004611692565b610370565b61014a6101bc366004611662565b600b6020526000908152604090205481565b6101446101dc36600461176b565b610545565b6101e961068b565b604080519485526020850193909352918301526060820152608001610154565b6101446106af565b61023461021f366004611662565b600d6020526000908152604090205460ff1681565b6040519015158152602001610154565b6102576102523660046117b2565b6106c3565b604051610154939291906117d4565b6000546001600160a01b0316610170565b61027f61089f565b604051610154999897969594939291906118ad565b610144610aaa565b6101446102aa366004611919565b610bf5565b61027f610df8565b6101446102c5366004611932565b610f55565b6102dd6102d8366004611919565b6110e7565b6040516101549796959493929190611996565b6101706102fe366004611919565b61123d565b610144610311366004611662565b611267565b61031e6112a2565b600f80546001600160a01b038381166001600160a01b0319831681179093556040519116919082907f44a67b7e4c75d366b5b73a058e417c0910f6b7ef4860f7b8cf510a5df1ab7a2290600090a35050565b6000546001600160a01b031633148061038d575061038d336112cf565b6103d35760405162461bcd60e51b815260206004820152601260248201527127b7363c9020a49037b91031b932b0ba37b960711b60448201526064015b60405180910390fd5b60095482106104185760405162461bcd60e51b8152602060048201526011602482015270496e76616c6964206d696c6573746f6e6560781b60448201526064016103ca565b6000828152600a60205260409020600160038083015460ff169081111561044157610441611980565b1461048e5760405162461bcd60e51b815260206004820152601760248201527f4d696c6573746f6e65206e6f74207375626d697474656400000000000000000060448201526064016103ca565b60405160ff8316815283907fe90edf17af9e0faec80c6ac87ec2e813590ce6acc79b6d254bc0d5d2dbb81a179060200160405180910390a28160ff166001036104df576104da836112fd565b505050565b60ff821615806104f257508160ff166002145b1561050b576003908101805460ff191690911790555050565b60405162461bcd60e51b815260206004820152600f60248201526e125b9d985b1a59081d995c991a58dd608a1b60448201526064016103ca565b61054d6112a2565b60095482106105925760405162461bcd60e51b8152602060048201526011602482015270496e76616c6964206d696c6573746f6e6560781b60448201526064016103ca565b6000828152600a602052604081209060038083015460ff16908111156105ba576105ba611980565b14806105dc575060038181015460ff16818111156105da576105da611980565b145b6106285760405162461bcd60e51b815260206004820152601c60248201527f496e76616c696420737461746520666f72207375626d697373696f6e0000000060448201526064016103ca565b600581016106368382611a92565b5060038101805460ff1916600117905542600482015560405183907f6c4ed5f8d6ddf265b243b3e007707e3374049d833dfc7791c66c06579aa10ff99061067e908590611b52565b60405180910390a2505050565b600c5460055460008083156106a7576106a48484611b7b565b91505b504290919293565b6106b76112a2565b6106c160006114d9565b565b6060806000600c8054905085106107125760405162461bcd60e51b8152602060048201526013602482015272092dcecc2d8d2c840e6e8c2e4e840d2dcc8caf606b1b60448201526064016103ca565b600061071e8587611b9d565b600c549091508111156107305750600c545b600061073c8783611bb0565b90508067ffffffffffffffff811115610757576107576116c8565b604051908082528060200260200182016040528015610780578160200160208202803683370190505b5094508067ffffffffffffffff81111561079c5761079c6116c8565b6040519080825280602002602001820160405280156107c5578160200160208202803683370190505b50935060005b81811015610890576000600c6107e1838b611b9d565b815481106107f1576107f1611bc3565b9060005260206000200160009054906101000a90046001600160a01b031690508087838151811061082457610824611bc3565b60200260200101906001600160a01b031690816001600160a01b031681525050600b6000826001600160a01b03166001600160a01b031681526020019081526020016000205486838151811061087c5761087c611bc3565b6020908102919091010152506001016107cb565b5050600c541190509250925092565b6060806000806000806000806000806002604051806101200160405290816000820180546108cc90611a08565b80601f01602080910402602001604051908101604052809291908181526020018280546108f890611a08565b80156109455780601f1061091a57610100808354040283529160200191610945565b820191906000526020600020905b81548152906001019060200180831161092857829003601f168201915b5050505050815260200160018201805461095e90611a08565b80601f016020809104026020016040519081016040528092919081815260200182805461098a90611a08565b80156109d75780601f106109ac576101008083540402835291602001916109d7565b820191906000526020600020905b8154815290600101906020018083116109ba57829003601f168201915b50505050508152602001600282015481526020016003820154815260200160048201548152602001600582015481526020016006820160009054906101000a90046001600160a01b03166001600160a01b03166001600160a01b031681526020016006820160149054906101000a900460ff161515151581526020016007820154815250509050806000015181602001518260400151836060015184608001518560a001518660c001518760e0015188610100015199509950995099509950995099509950995050909192939495969798565b610ab2611529565b6007544211610af95760405162461bcd60e51b8152602060048201526013602482015272111958591b1a5b99481b9bdd081c185cdcd959606a1b60448201526064016103ca565b60045460055410610b3b5760405162461bcd60e51b815260206004820152600c60248201526b11dbd85b081dd85cc81b595d60a21b60448201526064016103ca565b336000908152600b6020526040902054610b895760405162461bcd60e51b815260206004820152600f60248201526e27379031b7b73a3934b13aba34b7b760891b60448201526064016103ca565b336000818152600b602052604081208054919055600e549091610bb6916001600160a01b03169083611553565b60405181815233907f358fe4192934d3bf28ae181feda1f4bd08ca67f5e2fad55582cce5eb67304ae99060200160405180910390a2506106c160018055565b610bfd611529565b600754421115610c405760405162461bcd60e51b815260206004820152600e60248201526d10d85b5c185a59db88195b99195960921b60448201526064016103ca565b600854600160a01b900460ff16610c8f5760405162461bcd60e51b815260206004820152601360248201527243616d706169676e206e6f742061637469766560681b60448201526064016103ca565b60008111610cd45760405162461bcd60e51b81526020600482015260126024820152710416d6f756e74206d757374206265203e20360741b60448201526064016103ca565b600e54610cec906001600160a01b03163330846115b2565b336000908152600d602052604090205460ff16610d6057336000818152600d60205260408120805460ff19166001908117909155600c805491820181559091527fdf6966c971051c3d54ec59162606531493a51404a002842f56009d7e5cf4a8c70180546001600160a01b03191690911790555b336000908152600b602052604081208054839290610d7f908490611b9d565b909155505060058054829190600090610d99908490611b9d565b909155505060045460055410610db7576008805460ff60a01b191690555b60405181815233907f6770260ea820d2f539364e7617e021543aaf6d192f2fd2a47c20db6bd99a4eb99060200160405180910390a2610df560018055565b50565b600280548190610e0790611a08565b80601f0160208091040260200160405190810160405280929190818152602001828054610e3390611a08565b8015610e805780601f10610e5557610100808354040283529160200191610e80565b820191906000526020600020905b815481529060010190602001808311610e6357829003601f168201915b505050505090806001018054610e9590611a08565b80601f0160208091040260200160405190810160405280929190818152602001828054610ec190611a08565b8015610f0e5780601f10610ee357610100808354040283529160200191610f0e565b820191906000526020600020905b815481529060010190602001808311610ef157829003601f168201915b505050506002830154600384015460048501546005860154600687015460079097015495969395929450909290916001600160a01b03821691600160a01b900460ff169089565b610f5d6112a2565b60008211610fa25760405162461bcd60e51b81526020600482015260126024820152710416d6f756e74206d757374206265203e20360741b60448201526064016103ca565b428111610ff15760405162461bcd60e51b815260206004820152601a60248201527f446561646c696e65206d75737420626520696e2066757475726500000000000060448201526064016103ca565b6009546040805160e08101825285815260208101859052908101839052606081016000815260006020808301829052604080518083018252838152818501526060909301829052848252600a9052208151819061104e9082611a92565b50602082015181600101556040820151816002015560608201518160030160006101000a81548160ff0219169083600381111561108d5761108d611980565b02179055506080820151600482015560a082015160058201906110b09082611a92565b5060c091909101516006909101805460ff1916911515919091179055600980549060006110dc83611bd9565b919050555050505050565b600a6020526000908152604090208054819061110290611a08565b80601f016020809104026020016040519081016040528092919081815260200182805461112e90611a08565b801561117b5780601f106111505761010080835404028352916020019161117b565b820191906000526020600020905b81548152906001019060200180831161115e57829003601f168201915b50505060018401546002850154600386015460048701546005880180549798949793965060ff909216945092916111b190611a08565b80601f01602080910402602001604051908101604052809291908181526020018280546111dd90611a08565b801561122a5780601f106111ff5761010080835404028352916020019161122a565b820191906000526020600020905b81548152906001019060200180831161120d57829003601f168201915b5050506006909301549192505060ff1687565b600c818154811061124d57600080fd5b6000918252602090912001546001600160a01b0316905081565b61126f6112a2565b6001600160a01b03811661129957604051631e4fbdf760e01b8152600060048201526024016103ca565b610df5816114d9565b6000546001600160a01b031633146106c15760405163118cdaa760e01b81523360048201526024016103ca565b600f546000906001600160a01b0383811691161480156112f757506001600160a01b03821615155b92915050565b6000818152600a60205260409020600160038083015460ff169081111561132657611326611980565b146113735760405162461bcd60e51b815260206004820152601860248201527f496e76616c696420737461746520666f72207061796f7574000000000000000060448201526064016103ca565b6001810154600e546040516370a0823160e01b81523060048201526001600160a01b03909116906370a0823190602401602060405180830381865afa1580156113c0573d6000803e3d6000fd5b505050506040513d601f19601f820116820180604052508101906113e49190611bf2565b10156114325760405162461bcd60e51b815260206004820152601e60248201527f496e73756666696369656e742066756e647320696e20636f6e7472616374000060448201526064016103ca565b60038101805460ff1990811660021790915560068201805490911660019081179091558101546005805460009061146a908490611bb0565b9091555050600054611497906001600160a01b03166001830154600e546001600160a01b03169190611553565b817f80230996023d69b50793fa73f1919127c9d8e741d3989743c479169f22e7a28882600101546040516114cd91815260200190565b60405180910390a25050565b600080546001600160a01b038381166001600160a01b0319831681178455604051919092169283917f8be0079c531659141344cd1fd0a4f28419497f9722a3daafe3b4186f6b6457e09190a35050565b60026001540361154c57604051633ee5aeb560e01b815260040160405180910390fd5b6002600155565b6040516001600160a01b038381166024830152604482018390526104da91859182169063a9059cbb906064015b604051602081830303815290604052915060e01b6020820180516001600160e01b0383818316178352505050506115f1565b6040516001600160a01b0384811660248301528381166044830152606482018390526115eb9186918216906323b872dd90608401611580565b50505050565b600080602060008451602086016000885af180611614576040513d6000823e3d81fd5b50506000513d9150811561162c578060011415611639565b6001600160a01b0384163b155b156115eb57604051635274afe760e01b81526001600160a01b03851660048201526024016103ca565b60006020828403121561167457600080fd5b81356001600160a01b038116811461168b57600080fd5b9392505050565b600080604083850312156116a557600080fd5b82359150602083013560ff811681146116bd57600080fd5b809150509250929050565b634e487b7160e01b600052604160045260246000fd5b600082601f8301126116ef57600080fd5b813567ffffffffffffffff8082111561170a5761170a6116c8565b604051601f8301601f19908116603f01168101908282118183101715611732576117326116c8565b8160405283815286602085880101111561174b57600080fd5b836020870160208301376000602085830101528094505050505092915050565b6000806040838503121561177e57600080fd5b82359150602083013567ffffffffffffffff81111561179c57600080fd5b6117a8858286016116de565b9150509250929050565b600080604083850312156117c557600080fd5b50508035926020909101359150565b606080825284519082018190526000906020906080840190828801845b828110156118165781516001600160a01b0316845292840192908401906001016117f1565b5050508381038285015285518082528683019183019060005b8181101561184b5783518352928401929184019160010161182f565b50508515156040860152925061185f915050565b949350505050565b6000815180845260005b8181101561188d57602081850181015186830182015201611871565b506000602082860101526020601f19601f83011685010191505092915050565b60006101208083526118c18184018d611867565b905082810360208401526118d5818c611867565b604084019a909a5250506060810196909652608086019490945260a08501929092526001600160a01b031660c0840152151560e08301526101009091015292915050565b60006020828403121561192b57600080fd5b5035919050565b60008060006060848603121561194757600080fd5b833567ffffffffffffffff81111561195e57600080fd5b61196a868287016116de565b9660208601359650604090950135949350505050565b634e487b7160e01b600052602160045260246000fd5b60e0815260006119a960e083018a611867565b886020840152876040840152600487106119d357634e487b7160e01b600052602160045260246000fd5b86606084015285608084015282810360a08401526119f18186611867565b91505082151560c083015298975050505050505050565b600181811c90821680611a1c57607f821691505b602082108103611a3c57634e487b7160e01b600052602260045260246000fd5b50919050565b601f8211156104da576000816000526020600020601f850160051c81016020861015611a6b5750805b601f850160051c820191505b81811015611a8a57828155600101611a77565b505050505050565b815167ffffffffffffffff811115611aac57611aac6116c8565b611ac081611aba8454611a08565b84611a42565b602080601f831160018114611af55760008415611add5750858301515b600019600386901b1c1916600185901b178555611a8a565b600085815260208120601f198616915b82811015611b2457888601518255948401946001909101908401611b05565b5085821015611b425787850151600019600388901b60f8161c191681555b5050505050600190811b01905550565b60208152600061168b6020830184611867565b634e487b7160e01b600052601160045260246000fd5b600082611b9857634e487b7160e01b600052601260045260246000fd5b500490565b808201808211156112f7576112f7611b65565b818103818111156112f7576112f7611b65565b634e487b7160e01b600052603260045260246000fd5b600060018201611beb57611beb611b65565b5060010190565b600060208284031215611c0457600080fd5b505191905056fea2646970667358221220b8154745e37d5611b748d1c95402b897d03379e3444da3dc49368dabe7c411bb64736f6c63430008180033","linkReferences":{}},"methodIdentifiers":{"addMilestone(string,uint256,uint256)":"c3c31056","aiHandler()":"2b37ce8d","backers(uint256)":"e9d80020","backersCount()":"1d565e78","campaignInfo()":"c2ea6a7f","claimRefund()":"b5545a3c","contribute(uint256)":"c1cbbca7","contributions(address)":"42e94c90","getBackersBatch(uint256,uint256)":"8a519f66","getCampaignSummary()":"a00c96d7","getContributorSummary()":"64693764","isBacker(address)":"746fcab7","milestones(uint256)":"e89e4ed6","onAiVerdict(uint256,uint8)":"2fb37fef","owner()":"8da5cb5b","pyusd()":"22e669d3","renounceOwnership()":"715018a6","setAiHandler(address)":"0878ffe3","submitMilestone(uint256,string)":"476a119b","transferOwnership(address)":"f2fde38b"},"id":43}