{"abi":[{"type":"constructor","inputs":[{"name":"_title","type":"string","internalType":"string"},{"name":"_description","type":"string","internalType":"string"},{"name":"_totalGoal","type":"uint256","internalType":"uint256"},{"name":"_duration","type":"uint256","internalType":"uint256"},{"name":"_pyusd","type":"address","internalType":"address"},{"name":"_creator","type":"address","internalType":"address"},{"name":"_milestoneAmounts","type":"uint256[]","internalType":"uint256[]"},{"name":"_aiHandler","type":"address","internalType":"address"}],"stateMutability":"nonpayable"},{"type":"function","name":"addMilestone","inputs":[{"name":"_description","type":"string","internalType":"string"},{"name":"_amount","type":"uint256","internalType":"uint256"},{"name":"_deadline","type":"uint256","internalType":"uint256"}],"outputs":[],"stateMutability":"nonpayable"},{"type":"function","name":"aiHandler","inputs":[],"outputs":[{"name":"","type":"address","internalType":"address"}],"stateMutability":"view"},{"type":"function","name":"backers","inputs":[{"name":"","type":"uint256","internalType":"uint256"}],"outputs":[{"name":"","type":"address","internalType":"address"}],"stateMutability":"view"},{"type":"function","name":"backersCount","inputs":[],"outputs":[{"name":"","type":"uint256","internalType":"uint256"}],"stateMutability":"view"},{"type":"function","name":"campaignInfo","inputs":[],"outputs":[{"name":"title","type":"string","internalType":"string"},{"name":"description","type":"string","internalType":"string"},{"name":"totalGoal","type":"uint256","internalType":"uint256"},{"name":"totalRaised","type":"uint256","internalType":"uint256"},{"name":"startTime","type":"uint256","internalType":"uint256"},{"name":"endTime","type":"uint256","internalType":"uint256"},{"name":"creator","type":"address","internalType":"address"},{"name":"isActive","type":"bool","internalType":"bool"},{"name":"milestoneCount","type":"uint256","internalType":"uint256"}],"stateMutability":"view"},{"type":"function","name":"claimRefund","inputs":[],"outputs":[],"stateMutability":"nonpayable"},{"type":"function","name":"contribute","inputs":[{"name":"_amount","type":"uint256","internalType":"uint256"}],"outputs":[],"stateMutability":"nonpayable"},{"type":"function","name":"contributions","inputs":[{"name":"","type":"address","internalType":"address"}],"outputs":[{"name":"","type":"uint256","internalType":"uint256"}],"stateMutability":"view"},{"type":"function","name":"getCampaignSummary","inputs":[],"outputs":[{"name":"title","type":"string","internalType":"string"},{"name":"description","type":"string","internalType":"string"},{"name":"totalGoal","type":"uint256","internalType":"uint256"},{"name":"totalRaised","type":"uint256","internalType":"uint256"},{"name":"startTime","type":"uint256","internalType":"uint256"},{"name":"endTime","type":"uint256","internalType":"uint256"},{"name":"creator","type":"address","internalType":"address"},{"name":"isActive","type":"bool","internalType":"bool"},{"name":"milestoneCount","type":"uint256","internalType":"uint256"}],"stateMutability":"view"},{"type":"function","name":"isBacker","inputs":[{"name":"","type":"address","internalType":"address"}],"outputs":[{"name":"","type":"bool","internalType":"bool"}],"stateMutability":"view"},{"type":"function","name":"milestones","inputs":[{"name":"","type":"uint256","internalType":"uint256"}],"outputs":[{"name":"description","type":"string","internalType":"string"},{"name":"amount","type":"uint256","internalType":"uint256"},{"name":"deadline","type":"uint256","internalType":"uint256"},{"name":"state","type":"uint8","internalType":"enum AICrowdfundingCampaign.MilestoneState"},{"name":"submittedAt","type":"uint256","internalType":"uint256"},{"name":"aiReviewHash","type":"string","internalType":"string"},{"name":"fundsReleased","type":"bool","internalType":"bool"}],"stateMutability":"view"},{"type":"function","name":"onAiVerdict","inputs":[{"name":"_milestoneId","type":"uint256","internalType":"uint256"},{"name":"_verdict","type":"uint8","internalType":"uint8"}],"outputs":[],"stateMutability":"nonpayable"},{"type":"function","name":"owner","inputs":[],"outputs":[{"name":"","type":"address","internalType":"address"}],"stateMutability":"view"},{"type":"function","name":"pyusd","inputs":[],"outputs":[{"name":"","type":"address","internalType":"contract IERC20"}],"stateMutability":"view"},{"type":"function","name":"renounceOwnership","inputs":[],"outputs":[],"stateMutability":"nonpayable"},{"type":"function","name":"setAiHandler","inputs":[{"name":"_newHandler","type":"address","internalType":"address"}],"outputs":[],"stateMutability":"nonpayable"},{"type":"function","name":"submitMilestone","inputs":[{"name":"_milestoneId","type":"uint256","internalType":"uint256"},{"name":"_reviewHash","type":"string","internalType":"string"}],"outputs":[],"stateMutability":"nonpayable"},{"type":"function","name":"transferOwnership","inputs":[{"name":"newOwner","type":"address","internalType":"address"}],"outputs":[],"stateMutability":"nonpayable"},{"type":"event","name":"AiHandlerUpdated","inputs":[{"name":"previousHandler","type":"address","indexed":true,"internalType":"address"},{"name":"newHandler","type":"address","indexed":true,"internalType":"address"}],"anonymous":false},{"type":"event","name":"ContributionMade","inputs":[{"name":"contributor","type":"address","indexed":true,"internalType":"address"},{"name":"amount","type":"uint256","indexed":false,"internalType":"uint256"}],"anonymous":false},{"type":"event","name":"FundsReleased","inputs":[{"name":"milestoneId","type":"uint256","indexed":true,"internalType":"uint256"},{"name":"amount","type":"uint256","indexed":false,"internalType":"uint256"}],"anonymous":false},{"type":"event","name":"MilestoneSubmitted","inputs":[{"name":"milestoneId","type":"uint256","indexed":true,"internalType":"uint256"},{"name":"reviewHash","type":"string","indexed":false,"internalType":"string"}],"anonymous":false},{"type":"event","name":"MilestoneVerified","inputs":[{"name":"milestoneId","type":"uint256","indexed":true,"internalType":"uint256"},{"name":"verdict","type":"uint8","indexed":false,"internalType":"uint8"}],"anonymous":false},{"type":"event","name":"OwnershipTransferred","inputs":[{"name":"previousOwner","type":"address","indexed":true,"internalType":"address"},{"name":"newOwner","type":"address","indexed":true,"internalType":"address"}],"anonymous":false},{"type":"event","name":"RefundClaimed","inputs":[{"name":"backer","type":"address","indexed":true,"internalType":"address"},{"name":"amount","type":"uint256","indexed":false,"internalType":"uint256"}],"anonymous":false},{"type":"error","name":"OwnableInvalidOwner","inputs":[{"name":"owner","type":"address","internalType":"address"}]},{"type":"error","name":"OwnableUnauthorizedAccount","inputs":[{"name":"account","type":"address","internalType":"address"}]},{"type":"error","name":"ReentrancyGuardReentrantCall","inputs":[]},{"type":"error","name":"SafeERC20FailedOperation","inputs":[{"name":"token","type":"address","internalType":"address"}]}],"bytecode":{"object":"0x60806040523480156200001157600080fd5b5060405162002234380380620022348339810160408190526200003491620006a2565b826001600160a01b0381166200006557604051631e4fbdf760e01b8152600060048201526024015b60405180910390fd5b6200007081620004d7565b506001805585620000b75760405162461bcd60e51b815260206004820152601060248201526f0476f616c206d757374206265203e20360841b60448201526064016200005c565b60008511620001095760405162461bcd60e51b815260206004820152601460248201527f4475726174696f6e206d757374206265203e203000000000000000000000000060448201526064016200005c565b6001600160a01b038416620001505760405162461bcd60e51b815260206004820152600c60248201526b5a65726f206164647265737360a01b60448201526064016200005c565b6001600160a01b038316620001975760405162461bcd60e51b815260206004820152600c60248201526b2d32b9379031b932b0ba37b960a11b60448201526064016200005c565b604051806101200160405280898152602001888152602001878152602001600081526020014281526020018642620001d091906200077f565b81526001600160a01b03851660208201526001604082015260006060909101528051600290819062000203908262000838565b50602082015160018201906200021a908262000838565b5060408201516002820155606082015160038201556080820151600482015560a0820151600582015560c082015160068201805460e08501511515600160a01b026001600160a81b03199091166001600160a01b039384161717905561010090920151600790910155600e80548683166001600160a01b031991821617909155600f8054928416929091169190911790556000805b835181101562000471576000848281518110620002d057620002d062000904565b6020026020010151116200031c5760405162461bcd60e51b815260206004820152601260248201527104d696c6573746f6e65206d757374203e20360741b60448201526064016200005c565b6040518060e0016040528060405180602001604052806000815250815260200185838151811062000351576200035162000904565b6020026020010151815260200160008152602001600060038111156200037b576200037b6200091a565b815260006020808301829052604080518083018252838152818501526060909301829052848252600a90522081518190620003b7908262000838565b50602082015181600101556040820151816002015560608201518160030160006101000a81548160ff02191690836003811115620003f957620003f96200091a565b02179055506080820151600482015560a082015160058201906200041e908262000838565b5060c091909101516006909101805460ff1916911515919091179055835184908290811062000451576200045162000904565b6020026020010151826200046691906200077f565b9150600101620002af565b5086811115620004c45760405162461bcd60e51b815260206004820152601660248201527f4d696c6573746f6e65732065786365656420676f616c0000000000000000000060448201526064016200005c565b5050516009555062000930945050505050565b600080546001600160a01b038381166001600160a01b0319831681178455604051919092169283917f8be0079c531659141344cd1fd0a4f28419497f9722a3daafe3b4186f6b6457e09190a35050565b634e487b7160e01b600052604160045260246000fd5b604051601f8201601f191681016001600160401b038111828210171562000568576200056862000527565b604052919050565b600082601f8301126200058257600080fd5b81516001600160401b038111156200059e576200059e62000527565b6020620005b4601f8301601f191682016200053d565b8281528582848701011115620005c957600080fd5b60005b83811015620005e9578581018301518282018401528201620005cc565b506000928101909101919091529392505050565b80516001600160a01b03811681146200061557600080fd5b919050565b600082601f8301126200062c57600080fd5b815160206001600160401b038211156200064a576200064a62000527565b8160051b6200065b8282016200053d565b92835284810182019282810190878511156200067657600080fd5b83870192505b8483101562000697578251825291830191908301906200067c565b979650505050505050565b600080600080600080600080610100898b031215620006c057600080fd5b88516001600160401b0380821115620006d857600080fd5b620006e68c838d0162000570565b995060208b0151915080821115620006fd57600080fd5b6200070b8c838d0162000570565b985060408b0151975060608b015196506200072960808c01620005fd565b95506200073960a08c01620005fd565b945060c08b01519150808211156200075057600080fd5b506200075f8b828c016200061a565b9250506200077060e08a01620005fd565b90509295985092959890939650565b80820180821115620007a157634e487b7160e01b600052601160045260246000fd5b92915050565b600181811c90821680620007bc57607f821691505b602082108103620007dd57634e487b7160e01b600052602260045260246000fd5b50919050565b601f82111562000833576000816000526020600020601f850160051c810160208610156200080e5750805b601f850160051c820191505b818110156200082f578281556001016200081a565b5050505b505050565b81516001600160401b0381111562000854576200085462000527565b6200086c81620008658454620007a7565b84620007e3565b602080601f831160018114620008a457600084156200088b5750858301515b600019600386901b1c1916600185901b1785556200082f565b600085815260208120601f198616915b82811015620008d557888601518255948401946001909101908401620008b4565b5085821015620008f45787850151600019600388901b60f8161c191681555b5050505050600190811b01905550565b634e487b7160e01b600052603260045260246000fd5b634e487b7160e01b600052602160045260246000fd5b6118f480620009406000396000f3fe608060405234801561001057600080fd5b50600436106101165760003560e01c80638da5cb5b116100a2578063c2ea6a7f11610071578063c2ea6a7f1461024f578063c3c3105614610257578063e89e4ed61461026a578063e9d8002014610290578063f2fde38b146102a357600080fd5b80638da5cb5b14610206578063a00c96d714610217578063b5545a3c14610234578063c1cbbca71461023c57600080fd5b80632fb37fef116100e95780632fb37fef1461018557806342e94c9014610198578063476a119b146101b8578063715018a6146101cb578063746fcab7146101d357600080fd5b80630878ffe31461011b5780631d565e781461013057806322e669d3146101475780632b37ce8d14610172575b600080fd5b61012e610129366004611402565b6102b6565b005b600c545b6040519081526020015b60405180910390f35b600e5461015a906001600160a01b031681565b6040516001600160a01b03909116815260200161013e565b600f5461015a906001600160a01b031681565b61012e610193366004611432565b610310565b6101346101a6366004611402565b600b6020526000908152604090205481565b61012e6101c636600461150b565b6104e5565b61012e61062b565b6101f66101e1366004611402565b600d6020526000908152604090205460ff1681565b604051901515815260200161013e565b6000546001600160a01b031661015a565b61021f61063f565b60405161013e99989796959493929190611598565b61012e61084a565b61012e61024a366004611604565b610995565b61021f610b98565b61012e61026536600461161d565b610cf5565b61027d610278366004611604565b610e87565b60405161013e9796959493929190611681565b61015a61029e366004611604565b610fdd565b61012e6102b1366004611402565b611007565b6102be611042565b600f80546001600160a01b038381166001600160a01b0319831681179093556040519116919082907f44a67b7e4c75d366b5b73a058e417c0910f6b7ef4860f7b8cf510a5df1ab7a2290600090a35050565b6000546001600160a01b031633148061032d575061032d3361106f565b6103735760405162461bcd60e51b815260206004820152601260248201527127b7363c9020a49037b91031b932b0ba37b960711b60448201526064015b60405180910390fd5b60095482106103b85760405162461bcd60e51b8152602060048201526011602482015270496e76616c6964206d696c6573746f6e6560781b604482015260640161036a565b6000828152600a60205260409020600160038083015460ff16908111156103e1576103e161166b565b1461042e5760405162461bcd60e51b815260206004820152601760248201527f4d696c6573746f6e65206e6f74207375626d6974746564000000000000000000604482015260640161036a565b60405160ff8316815283907fe90edf17af9e0faec80c6ac87ec2e813590ce6acc79b6d254bc0d5d2dbb81a179060200160405180910390a28160ff1660010361047f5761047a8361109d565b505050565b60ff8216158061049257508160ff166002145b156104ab576003908101805460ff191690911790555050565b60405162461bcd60e51b815260206004820152600f60248201526e125b9d985b1a59081d995c991a58dd608a1b604482015260640161036a565b6104ed611042565b60095482106105325760405162461bcd60e51b8152602060048201526011602482015270496e76616c6964206d696c6573746f6e6560781b604482015260640161036a565b6000828152600a602052604081209060038083015460ff169081111561055a5761055a61166b565b148061057c575060038181015460ff168181111561057a5761057a61166b565b145b6105c85760405162461bcd60e51b815260206004820152601c60248201527f496e76616c696420737461746520666f72207375626d697373696f6e00000000604482015260640161036a565b600581016105d6838261177d565b5060038101805460ff1916600117905542600482015560405183907f6c4ed5f8d6ddf265b243b3e007707e3374049d833dfc7791c66c06579aa10ff99061061e90859061183d565b60405180910390a2505050565b610633611042565b61063d6000611279565b565b60608060008060008060008060008060026040518061012001604052908160008201805461066c906116f3565b80601f0160208091040260200160405190810160405280929190818152602001828054610698906116f3565b80156106e55780601f106106ba576101008083540402835291602001916106e5565b820191906000526020600020905b8154815290600101906020018083116106c857829003601f168201915b505050505081526020016001820180546106fe906116f3565b80601f016020809104026020016040519081016040528092919081815260200182805461072a906116f3565b80156107775780601f1061074c57610100808354040283529160200191610777565b820191906000526020600020905b81548152906001019060200180831161075a57829003601f168201915b50505050508152602001600282015481526020016003820154815260200160048201548152602001600582015481526020016006820160009054906101000a90046001600160a01b03166001600160a01b03166001600160a01b031681526020016006820160149054906101000a900460ff161515151581526020016007820154815250509050806000015181602001518260400151836060015184608001518560a001518660c001518760e0015188610100015199509950995099509950995099509950995050909192939495969798565b6108526112c9565b60075442116108995760405162461bcd60e51b8152602060048201526013602482015272111958591b1a5b99481b9bdd081c185cdcd959606a1b604482015260640161036a565b600454600554106108db5760405162461bcd60e51b815260206004820152600c60248201526b11dbd85b081dd85cc81b595d60a21b604482015260640161036a565b336000908152600b60205260409020546109295760405162461bcd60e51b815260206004820152600f60248201526e27379031b7b73a3934b13aba34b7b760891b604482015260640161036a565b336000818152600b602052604081208054919055600e549091610956916001600160a01b031690836112f3565b60405181815233907f358fe4192934d3bf28ae181feda1f4bd08ca67f5e2fad55582cce5eb67304ae99060200160405180910390a25061063d60018055565b61099d6112c9565b6007544211156109e05760405162461bcd60e51b815260206004820152600e60248201526d10d85b5c185a59db88195b99195960921b604482015260640161036a565b600854600160a01b900460ff16610a2f5760405162461bcd60e51b815260206004820152601360248201527243616d706169676e206e6f742061637469766560681b604482015260640161036a565b60008111610a745760405162461bcd60e51b81526020600482015260126024820152710416d6f756e74206d757374206265203e20360741b604482015260640161036a565b600e54610a8c906001600160a01b0316333084611352565b336000908152600d602052604090205460ff16610b0057336000818152600d60205260408120805460ff19166001908117909155600c805491820181559091527fdf6966c971051c3d54ec59162606531493a51404a002842f56009d7e5cf4a8c70180546001600160a01b03191690911790555b336000908152600b602052604081208054839290610b1f908490611866565b909155505060058054829190600090610b39908490611866565b909155505060045460055410610b57576008805460ff60a01b191690555b60405181815233907f6770260ea820d2f539364e7617e021543aaf6d192f2fd2a47c20db6bd99a4eb99060200160405180910390a2610b9560018055565b50565b600280548190610ba7906116f3565b80601f0160208091040260200160405190810160405280929190818152602001828054610bd3906116f3565b8015610c205780601f10610bf557610100808354040283529160200191610c20565b820191906000526020600020905b815481529060010190602001808311610c0357829003601f168201915b505050505090806001018054610c35906116f3565b80601f0160208091040260200160405190810160405280929190818152602001828054610c61906116f3565b8015610cae5780601f10610c8357610100808354040283529160200191610cae565b820191906000526020600020905b815481529060010190602001808311610c9157829003601f168201915b505050506002830154600384015460048501546005860154600687015460079097015495969395929450909290916001600160a01b03821691600160a01b900460ff169089565b610cfd611042565b60008211610d425760405162461bcd60e51b81526020600482015260126024820152710416d6f756e74206d757374206265203e20360741b604482015260640161036a565b428111610d915760405162461bcd60e51b815260206004820152601a60248201527f446561646c696e65206d75737420626520696e20667574757265000000000000604482015260640161036a565b6009546040805160e08101825285815260208101859052908101839052606081016000815260006020808301829052604080518083018252838152818501526060909301829052848252600a90522081518190610dee908261177d565b50602082015181600101556040820151816002015560608201518160030160006101000a81548160ff02191690836003811115610e2d57610e2d61166b565b02179055506080820151600482015560a08201516005820190610e50908261177d565b5060c091909101516006909101805460ff191691151591909117905560098054906000610e7c83611879565b919050555050505050565b600a60205260009081526040902080548190610ea2906116f3565b80601f0160208091040260200160405190810160405280929190818152602001828054610ece906116f3565b8015610f1b5780601f10610ef057610100808354040283529160200191610f1b565b820191906000526020600020905b815481529060010190602001808311610efe57829003601f168201915b50505060018401546002850154600386015460048701546005880180549798949793965060ff90921694509291610f51906116f3565b80601f0160208091040260200160405190810160405280929190818152602001828054610f7d906116f3565b8015610fca5780601f10610f9f57610100808354040283529160200191610fca565b820191906000526020600020905b815481529060010190602001808311610fad57829003601f168201915b5050506006909301549192505060ff1687565b600c8181548110610fed57600080fd5b6000918252602090912001546001600160a01b0316905081565b61100f611042565b6001600160a01b03811661103957604051631e4fbdf760e01b81526000600482015260240161036a565b610b9581611279565b6000546001600160a01b0316331461063d5760405163118cdaa760e01b815233600482015260240161036a565b600f546000906001600160a01b03838116911614801561109757506001600160a01b03821615155b92915050565b6000818152600a60205260409020600160038083015460ff16908111156110c6576110c661166b565b146111135760405162461bcd60e51b815260206004820152601860248201527f496e76616c696420737461746520666f72207061796f75740000000000000000604482015260640161036a565b6001810154600e546040516370a0823160e01b81523060048201526001600160a01b03909116906370a0823190602401602060405180830381865afa158015611160573d6000803e3d6000fd5b505050506040513d601f19601f820116820180604052508101906111849190611892565b10156111d25760405162461bcd60e51b815260206004820152601e60248201527f496e73756666696369656e742066756e647320696e20636f6e74726163740000604482015260640161036a565b60038101805460ff1990811660021790915560068201805490911660019081179091558101546005805460009061120a9084906118ab565b9091555050600054611237906001600160a01b03166001830154600e546001600160a01b031691906112f3565b817f80230996023d69b50793fa73f1919127c9d8e741d3989743c479169f22e7a288826001015460405161126d91815260200190565b60405180910390a25050565b600080546001600160a01b038381166001600160a01b0319831681178455604051919092169283917f8be0079c531659141344cd1fd0a4f28419497f9722a3daafe3b4186f6b6457e09190a35050565b6002600154036112ec57604051633ee5aeb560e01b815260040160405180910390fd5b6002600155565b6040516001600160a01b0383811660248301526044820183905261047a91859182169063a9059cbb906064015b604051602081830303815290604052915060e01b6020820180516001600160e01b038381831617835250505050611391565b6040516001600160a01b03848116602483015283811660448301526064820183905261138b9186918216906323b872dd90608401611320565b50505050565b600080602060008451602086016000885af1806113b4576040513d6000823e3d81fd5b50506000513d915081156113cc5780600114156113d9565b6001600160a01b0384163b155b1561138b57604051635274afe760e01b81526001600160a01b038516600482015260240161036a565b60006020828403121561141457600080fd5b81356001600160a01b038116811461142b57600080fd5b9392505050565b6000806040838503121561144557600080fd5b82359150602083013560ff8116811461145d57600080fd5b809150509250929050565b634e487b7160e01b600052604160045260246000fd5b600082601f83011261148f57600080fd5b813567ffffffffffffffff808211156114aa576114aa611468565b604051601f8301601f19908116603f011681019082821181831017156114d2576114d2611468565b816040528381528660208588010111156114eb57600080fd5b836020870160208301376000602085830101528094505050505092915050565b6000806040838503121561151e57600080fd5b82359150602083013567ffffffffffffffff81111561153c57600080fd5b6115488582860161147e565b9150509250929050565b6000815180845260005b818110156115785760208185018101518683018201520161155c565b506000602082860101526020601f19601f83011685010191505092915050565b60006101208083526115ac8184018d611552565b905082810360208401526115c0818c611552565b604084019a909a5250506060810196909652608086019490945260a08501929092526001600160a01b031660c0840152151560e08301526101009091015292915050565b60006020828403121561161657600080fd5b5035919050565b60008060006060848603121561163257600080fd5b833567ffffffffffffffff81111561164957600080fd5b6116558682870161147e565b9660208601359650604090950135949350505050565b634e487b7160e01b600052602160045260246000fd5b60e08152600061169460e083018a611552565b886020840152876040840152600487106116be57634e487b7160e01b600052602160045260246000fd5b86606084015285608084015282810360a08401526116dc8186611552565b91505082151560c083015298975050505050505050565b600181811c9082168061170757607f821691505b60208210810361172757634e487b7160e01b600052602260045260246000fd5b50919050565b601f82111561047a576000816000526020600020601f850160051c810160208610156117565750805b601f850160051c820191505b8181101561177557828155600101611762565b505050505050565b815167ffffffffffffffff81111561179757611797611468565b6117ab816117a584546116f3565b8461172d565b602080601f8311600181146117e057600084156117c85750858301515b600019600386901b1c1916600185901b178555611775565b600085815260208120601f198616915b8281101561180f578886015182559484019460019091019084016117f0565b508582101561182d5787850151600019600388901b60f8161c191681555b5050505050600190811b01905550565b60208152600061142b6020830184611552565b634e487b7160e01b600052601160045260246000fd5b8082018082111561109757611097611850565b60006001820161188b5761188b611850565b5060010190565b6000602082840312156118a457600080fd5b5051919050565b818103818111156110975761109761185056fea2646970667358221220faafe496f97b93ca68947e37035c55253bf29e227d38205681126e00fc6e402664736f6c63430008180033","linkReferences":{}},"methodIdentifiers":{"addMilestone(string,uint256,uint256)":"c3c31056","aiHandler()":"2b37ce8d","backers(uint256)":"e9d80020","backersCount()":"1d565e78","campaignInfo()":"c2ea6a7f","claimRefund()":"b5545a3c","contribute(uint256)":"c1cbbca7","contributions(address)":"42e94c90","getCampaignSummary()":"a00c96d7","isBacker(address)":"746fcab7","milestones(uint256)":"e89e4ed6","onAiVerdict(uint256,uint8)":"2fb37fef","owner()":"8da5cb5b","pyusd()":"22e669d3","renounceOwnership()":"715018a6","setAiHandler(address)":"0878ffe3","submitMilestone(uint256,string)":"476a119b","transferOwnership(address)":"f2fde38b"},"id":33}